:020000040800F2
:100000000004002061010008611F0008611F000852
:10001000611F0008611F0008611F0008611F0008C0
:10002000611F0008611F0008611F0008312E0008D1
:10003000611F0008611F0008611F0008611F0008A0
:10004000611F0008611F0008611F0008611F000890
:10005000611F0008611F0008611F0008611F000880
:10006000611F0008611F0008611F0008611F000870
:10007000611F0008611F0008611F0008611F000860
:10008000611F0008611F0008611F0008D12F0008D0
:10009000612F0008F12E0008912E0008611F000852
:1000A000611F0008611F0008611F0008611F000830
:1000B000912D0008611F0008611F0008611F0008E2
:1000C000611F0008611F0008611F0008611F000810
:1000D000611F000831390008611F0008611F000816
:1000E000611F0008611F0008611F0008611F0008F0
:1000F000611F0008611F0008611F0008611F0008E0
:10010000611F0008611F0008611F0008611F0008CF
:10011000611F0008611F0008611F0008611F0008BF
:10012000611F0008611F0008611F0008611F0008AF
:10013000611F0008611F0008611F0008611F00089F
:10014000611F0008611F0008611F0008611F00088F
:10015000611F0008611F0008611F0008611F00087F
:1001600072B6224880F30988022080F31488BFF316
:100170006F8F01F035FF03F04BFA1D481D491E4AF1
:1001800091423CBF41F8040BFAE71C49174A9142DF
:100190003CBF41F8040BFAE719491A4A1A4B9A4234
:1001A0003EBF51F8040B42F8040BF8E70020174952
:1001B000174A91423CBF41F8040BFAE701F0D8FE20
:1001C00001F006FF134C144DAC4203DA54F8041B43
:1001D0008847F9E701F0FCFF104C114DAC4203DAFF
:1001E00054F8041B8847F9E701F0EABE0008002034
:1001F0005555555500000020000400200004002043
:10020000E079000800080020DC080020E008002059
:10021000BC140020600100086001000860010008B3
:100220006001000800000000000000000000000065
:100230002DE9F04FC1F80CD0C3689D46BDE8F08FA2
:10024000002383F311882846A047002001F078FCA2
:1002500001F0E6F800DFFEE700000000000000000B
:1002600080EA010C1CF0030F37D110F0030C20F0D2
:10027000030021F0030150F8042B08BF51F8043BA0
:100280000ED08CF0030C6FF07F434FEACC0C23FAB6
:100290000CFC51F8043B42EA0C0243EA0C0300BF99
:1002A000A2F1013C9A4201BF2CEA020C1CF0803FF3
:1002B00050F8042B51F8043BF2D04FEA02604FEAA9
:1002C0001222012828BFB0EB036F08BF1B0AF4D02D
:1002D00003F0FF03000EC01A704710F0030F0AD09E
:1002E00010F8012B11F8013B012A28BF9A42F4D0E3
:1002F000A2EB030070474DF8045D50F8042B01F0A9
:10030000030521F0030151F8043B022D26D04DD8FE
:1003100022F07F45B5EB132FA2F1013C2CEA020C31
:100320000DD11CF0803C08BF51F8043B0AD185EA8E
:100330000205B5EB036F0CD150F8042BE8E74FEA48
:1003400013235BE03CF07F4C54D10B784FEA1265ED
:1003500054E04FEA126503F0FF034FE04FEA024515
:10036000A2F1013C4FEA15452CEA020CB5EB134F04
:1003700018D11CF0803C08BF51F8043B07D185EA36
:100380000205B5EB034F09D150F8042BE6E75FEA0D
:100390000C4C2FD10B884FEA12452FE04FEA034354
:1003A0004FEA12454FEA134328E000BF02F0FF0571
:1003B000B5EB136FA2F1013C2CEA020C0DD11CF03D
:1003C000803C08BF51F8043B0AD185EA0205B5EB31
:1003D000032F0AD150F8042BE8E74FEA13630DE02E
:1003E00012F0FF0F06D051F8043B4FEA122523F01C
:1003F0007F4303E04FF0000020BC704705F0FF0290
:1004000003F0FF00012828BF904204BF2D0A1B0AF9
:10041000F4D0A2EB000020BC704700BF0000000039
:10042000024B00221B605B609A607047240800202A
:10043000044A054B002112605260916099601B6074
:100440005B60704724080020340800200000000092
:10045000024B00221B605B609A60704724080020FA
:10046000024B00221B605B609A607047A00800206E
:10047000024B00221B605B609A607047A00800205E
:10048000024B00221B605B609A607047A00800204E
:100490002DE9F041844D854BAA6982B094684FF4F0
:1004A000A471671C3A4600938148824B01F080F8A2
:1004B000814E824B04F1020830604FF4A471424631
:1004C00000937F487F4B01F073F870607E4801F025
:1004D000BFFAAB6901209968611AB1FA81F1490943
:1004E00002F06EFE10B102B0BDE8F081C82001F04C
:1004F000A7FCAB6902209968791AB1FA81F1490920
:1005000002F05EFE0028EED1704801F0A1FAAB695E
:1005100003209968791AB1FA81F1490902F050FE75
:100520000028E0D1C82001F08BFCAB690420996859
:10053000C1EB0801B1FA81F1490902F041FE00283E
:10054000D1D1624801F0E4F9AB6905209968791AC4
:10055000B1FA81F1490902F033FE0028C3D1C82065
:1005600001F06EFCAB6906209968791AB1FA81F145
:10057000490902F025FE0028B5D101F071F9AB69F7
:1005800007209968611AB1FA81F1490902F018FE51
:100590000028A8D102F094FD4D4B4FF4A4710093B4
:1005A0003A46444B424801F003F84A4B30604FF45E
:1005B000A47100934246434B414800F0F9FF70603C
:1005C000414801F045FAAB6908209968611AB1FA0F
:1005D00081F1490902F0F4FD002884D1C82001F01E
:1005E0002FFCAB69092099687B1A5942594102F0E6
:1005F000E7FD00287FF477AF344801F029FAAB69B2
:100600000A209968C1EB070CDCF1000141EB0C01F9
:1006100002F0D6FD00287FF466AFC82001F010FC80
:10062000AB690B209968C1EB080EDEF1000141EBCC
:100630000E0102F0C5FD064600287FF454AF2023CA
:1006400083F31188214801F03BF900F0F1FE86F3B5
:100650001188AB690C2099687E1A7142714102F0D1
:10066000AFFD00287FF43FAFC82001F0E9FBAB6984
:100670000D2099687A1A5142514102F0A1FD0028DB
:100680007FF431AF01F0ECF8AB690E209968631A82
:100690005942594102F094FD00287FF424AF02B082
:1006A000BDE8F04102F00CBD981000203069000850
:1006B000300A0020E1060008040A0020346900081E
:1006C000780B0020010700083408002024080020CF
:1006D00048790008386900080000000000000000A8
:1006E00010B5064C642001F0ABFB204601F0B0F9D8
:1006F0002046BDE8104001F00BB900BF34080020CF
:1007000010B5064C4FF4967001F09AFB204601F0AC
:100710009FF92046BDE8104001F0FAB824080020F7
:1007200070B5294E82B0B36928489C6801F090F9F1
:10073000274B621C00934FF4A471264B264800F00F
:1007400037FF264D264B2860A21C00934FF4A4715E
:10075000204B244800F02CFF234B6860E21C0093E0
:100760004FF4A4711B4B214800F022FF204BA860DE
:10077000221D00934FF4A471164B1E4800F018FF81
:100780001D4B4FF4A471621DE86000931B48114B90
:1007900000F00EFF28610D4801F0BAF802F090FC5D
:1007A000B36901209968611AB1FA81F1490902F02F
:1007B00007FD08B102B070BD1149022002B0BDE8CA
:1007C000704002F0D5BC00BF981000202408002023
:1007D00040690008E1080008300A0020040A0020EF
:1007E00048790008780B002038690008C00C002008
:1007F00030690008080E002034690008500F0020FE
:100800003C6900080000000000000000000000003B
:10081000F0B5274F274EBB69274D9A68274983B00B
:100820002B460091053A30464FF4A47100F0C0FE0B
:10083000BB69234C9A68234920602B460091043AF7
:1008400006F5A4704FF4A47100F0B2FEBB691E4916
:100850009A6860602B460091033A06F524704FF4C5
:10086000A47100F0A5FEBB6918499A68A0602B46E8
:100870000091023A06F576704FF4A47100F098FEEC
:10088000BB6913499A68E060013A2B46009106F56E
:10089000A4604FF4A47100F08BFE206102F010FC04
:1008A0000C49012003B0BDE8F04002F061BC00BF7C
:1008B00098100020300A002021320008406900080A
:1008C000040A0020487900083869000830690008E7
:1008D000346900083C6900080000000000000000C6
:1008E00038B50546054C204601F0B2F8287802F0EC
:1008F0007FFC2046BDE8384001F00AB824080020FB
:1009000010B50446034800F0CBFE2078BDE8104047
:1009100002F06EBCA00800200000000000000000F3
:1009200008B5202282F311888368002B05DD00F0D2
:100930007FFD002383F3118808BD01F099F800F0D2
:1009400077FD002383F3118808BD00BF000000007D
:1009500008B5642001F074FA202383F31188044859
:1009600001F086F800F064FD002383F3118808BDD0
:10097000A0080020000000000000000000000000AF
:10098000F0B587B003AD00240395049505942026A7
:1009900086F311882846214601F082F800F048FDD0
:1009A00084F3118886F3118805990120A142CCBFF8
:1009B0000021012102F004FC074618B184F31188DC
:1009C00007B0F0BD80F311883F4B4FF4A4719B69D1
:1009D0003E489A683E4B013A009500F0E9FD3D4BD8
:1009E0001860284600F05CFE86F311880599022005
:1009F0000029CCBF0021012102F0E2FB18B187F3EE
:100A0000118807B0F0BD80F3118886F31188059B2B
:100A1000002B23DD00F00CFD002484F31188202737
:100A200087F3118805990320A142D4BF0021012139
:100A300002F0C6FB06460028C0D180F3118887F378
:100A4000118805990420A1F10101B1FA81F1490948
:100A500002F0B6FB30B186F31188B1E7284601F009
:100A600007F8D7E780F3118887F31188059B002BDF
:100A700023DD00F0DDFC002484F31188202686F3BA
:100A8000118805990320A142D4BF0021012102F061
:100A900097FB0546002891D180F3118886F31188D1
:100AA00005990520A1F10101B1FA81F1490902F08E
:100AB00087FB30B185F3118882E7284600F0D8FF24
:100AC000D7E780F311887BE798100020300A0020D8
:100AD00021090008040A00200000000000000000B6
:100AE00010B51E4A82B09269002392684FF4A47137
:100AF000013200931A481B4B00F05AFD1A4C1B4B55
:100B0000186005F09DFC21680120091BB1FA81F1F4
:100B1000490902F055FB08B102B010BDA1680220DE
:100B2000B1FA81F1490902F04BFB0028F4D105F03C
:100B300087FC21680320091BB1FA81F1490902F001
:100B40003FFB0028E8D1A1680420B1FA81F14909EE
:100B500002B0BDE8104002F033BB00BF9810002087
:100B6000300A0020710B0008A0080020040A0020B1
:100B700010B5044C204600F093FD2046BDE810401F
:100B800000F0AEBCA0080020000000000000000043
:100B9000F0B5202583B085F31188554C00212046FF
:100BA00001F07EF80023014683F31188A1F1FF31A3
:100BB000B1FA81F10120490902F002FB08B103B04A
:100BC000F0BD21680220091BB1FA81F1490902F048
:100BD000F7FA0028F3D1A1680320B1FA81F149099D
:100BE00002F0EEFA06460028E9D1424B4FF4A47118
:100BF0009B6941489A68414B013A009600F0D8FC45
:100C00003F4B186085F311884FF47A71204601F04C
:100C100047F8074686F3118802F052FAB7FA87F1CF
:100C20000420490902F0CCFA0028C8D12168052027
:100C3000091BB1FA81F1490902F0C2FA0028BED1BC
:100C4000A1680620B1FA81F1490902F0B9FA064615
:100C50000028B4D102F024FA85F311884FF08043C4
:100C60005F6A86F311884126304602F0C1FA85F3A7
:100C7000118864211E4801F013F80023014683F314
:100C80001188A1F1FF31B1FA81F10720490902F081
:100C900097FA002893D121680820091BB1FA81F145
:100CA000490902F08DFA002889D1A1680920B1FA1A
:100CB00081F1490902F084FA0136F6B200287FF486
:100CC0007EAF462ED0D10A200E4902F051FA0028FC
:100CD0007FF475AFBFB207F5FA7107F5FC7289B200
:100CE00092B20B2003B0BDE8F04002F019BA00BF89
:100CF000A008002098100020300A002051090008A8
:100D0000040A00203C690008000000000000000008
:100D1000F0B54B4D4B4FAB6983B09A684FF4A4715B
:100D20000532494B4948009700F042FCAB69484CFA
:100D30009A68484B2060013200934FF4A471424BF3
:100D4000454800F035FCAA69444B92684FF4A47101
:100D500060600332009342483B4B00F029FCAA69D3
:100D6000404B92684FF4A471A060043200933E4857
:100D7000354B00F01DFCAA693C4B92684FF4A471FE
:100D80000232E06000933A482F4B00F011FC2061E2
:100D9000384800F0A5FB374800F0A2FB354800F0CA
:100DA0009FFB344800F09CFB324800F099FB02F0B6
:100DB00087F90120304902F0DBF9064608B103B09B
:100DC000F0BDAB694FF4A4719A68204805320097D2
:100DD0001D4B00F0EDFB2023206083F31188254C90
:100DE0000225274602E0012D0ED00125A36801331C
:100DF000002BA360F7DC386803685F603B6000F09D
:100E000097FC012D0662F0D100F012FB002585F35E
:100E1000118802F055F9202383F31188A16802207C
:100E2000A1F10101B1FA81F1490902F0C9F918B93A
:100E300080F3118803B0F0BD85F3118803B0F0BDD5
:100E4000981000203469000801090008300A0020C9
:100E5000040A002030690008780B00203869000877
:100E6000C00C002048790008080E002040690008E6
:100E7000500F0020A00800203C690008000000007E
:100E80002DE9F04F474E484DB369DFF834919A6829
:100E9000464983B04B460091043A28464FF4A4716A
:100EA00000F086FBB369DFF81C819A684049A5F51C
:100EB000A474C8F804004B460091053A20464FF44C
:100EC000A47100F075FBB3693A499A68C8F800004C
:100ED0004B460091013A05F576704FF4A47100F08D
:100EE00067FBB36934499A68C8F810000091023A68
:100EF00005F524704B464FF4A47100F059FB2022F5
:100F0000C8F80C0082F31188B36971699B68DFF837
:100F1000B8C0A3F1030ADFF8B4E005F5A473002715
:100F200005F51B7BC4F898A2C4F8CCA2C4F8B4930E
:100F3000022005F5B6794FF0010A05F5B875C4F839
:100F4000A062C4F89CB2C4F8B8C3C4F8D4E384F86F
:100F5000AC02C4F8A41284F8AD72C4F8C872C4F824
:100F6000C472C4F8A87284F8AEA20B617361C8F8A9
:100F70000830C4F8B492C4F8B852C4F8BC5287F32D
:100F80001188D8F8080082F3118800F0D1FB87F3AC
:100F9000118802F095F85046084903B0BDE8F04FBB
:100FA00002F0E6B898100020780B0020487900087D
:100FB0004069000834690008306900083C6900088D
:100FC00021320008040A00203869000841020008A4
:100FD000F8B502F065F8202686F311884FF08045B9
:100FE0006C6A0023A4B283F31188C82000F028FFA4
:100FF00004F1C80104F1CB0289B292B2012002F0DF
:101000008FF800B1F8BD86F311886C6AA4B280F342
:101010001188C82000F014FF04F1C80104F1CB02CC
:1010200089B292B2022002F07BF80028EAD186F35E
:1010300011886C6AA4B280F311884FF4FA6000F052
:10104000FFFE04F5FA6104F2D37289B292B2032072
:1010500002F066F80028D5D186F311886C6AA4B234
:1010600080F3118804F1C807BFB286F31188696A5A
:10107000791A89B259B9002383F3118804F1CB029C
:101080003946BDE8F84092B2042002F049B8082081
:1010900000F0DEFDEFE700BF0000000000000000F0
:1010A000F8B5494EB3699C68651C284600F0D0F934
:1010B0000746391BB1FA81F10120490902F080F895
:1010C00000B1F8BDB36902209968691AB1FA81F1DB
:1010D000490902F075F80028F3D1384600F0B8F954
:1010E000291AB1FA81F10320490902F069F80028B0
:1010F000E7D1B36904209968611AB1FA81F149090D
:1011000002F05EF80028DCD1202383F31188B26955
:1011100093680233936080F31188B369A71C9968C0
:101120000520791AB1FA81F1490902F049F800283D
:10113000C7D1284600F08CF9011BB1FA81F10620D5
:10114000490902F03DF80028BBD1B369072099682E
:10115000791AB1FA81F1490902F032F80028B0D1C8
:10116000B3690820D96B691AB1FA81F1490902F013
:1011700027F80028A5D1E71C384600F069F9281A9D
:1011800041424141092002F01BF8002899D1B3697E
:101190000A2099687A1A5142514102F011F8002848
:1011A0008FD1B3690B20D96B7B1A5942594102F098
:1011B00007F8002885D1202383F31188B3699C6048
:1011C000DC6380F311887CE79810002000000000A9
:1011D00010B4202383F31188037F072B0ED8DFE898
:1011E00003F0270D0D2308040D08026A93680133EC
:1011F000936090E80C001A60026853604FF0FF346F
:10120000002281680D4B046202771B689A688A424B
:10121000FBD25A680021036042601060586081F37D
:1012200011885DF8044B7047036A00221A60E5E7F5
:10123000002383F311885DF8044B70479810002059
:10124000FEE700BF000000000000000000000000FA
:101250000D4AF0B410689469056801270026A1685A
:101260002B466A60156007779061267700E01B685F
:101270009A688A42FBD85A682146236062601460EB
:101280005C60F0BCFEF7D4BF9810002000000000A6
:10129000202383F31188024602E08B4207D01A46CE
:1012A00013688342F9D1002383F3118870470B68D8
:1012B0001360002383F31188704700BF0000000013
:1012C0000246202181F31188837F013BDBB28377C3
:1012D0004BB910B4047F0F2C09D0002383F311887D
:1012E0005DF8044B7047002383F311887047447FF7
:1012F00004F00304012C11D0022CEED114694069D2
:1013000004611469606183F31188106C81F31188A2
:1013100001681160026083F31188E1E741690469A3
:101320000C610269516183F311885DF8044B02F08E
:10133000F7B900BF0000000000000000000000003E
:1013400010B5202383F31188074B04699C4217BF13
:10135000A37F00240133A377002383F31188FFF7D1
:10136000AFFF204610BD00BF981000200000000015
:101370000E4B0F495A688368096FD31AC26830B49C
:10138000D0E904455B1A01324168E418C260026882
:1013900045F100058B4288BF43609342C0E9044594
:1013A00030BC836038BF0360704700BF001000E0AE
:1013B0009810002000000000000000000000000065
:1013C000F8B5202383F31188124A10689469836862
:1013D000A1688B4203D2002383F31188F8BD05680E
:1013E000012700266A602B460777156090612677F3
:1013F00000E01B689A689142FBD95A682146236035
:10140000626014605C60FEF713FF002383F31188B1
:10141000F8BD00BF98100020000000000000000090
:10142000FFF716BF000000000000000000000000F1
:10143000044B1A689B6992689B689A4200D870476F
:10144000FFF706BF98100020000000000000000019
:1014500010B5202383F31188084B9B69DC6B9968D6
:101460008C4201D0814200D29860D863FFF7E0FF40
:10147000002383F31188204610BD00BF9810002080
:10148000144B70B49E69846805460162B06884425A
:101490000CD800222A771B689A689442FBD95A68B4
:1014A0002B606A6015605D6070BC70471A46002151
:1014B0003177126891688842FBD9506801247060C6
:1014C0003260066056602C77314628469D6170BCBC
:1014D000FEF7AEBE981000200000000000000000E3
:1014E00008B5202383F3118883680133002B8360C0
:1014F00003DD002383F3118808BD03460068002143
:1015000002681A605360FFF7BBFF002383F3118862
:1015100008BD00BF00000000000000000000000047
:101520002DE9F84F904699460D4602F041F90446E0
:10153000002834D0202383F311881A4FA5F1240109
:101540000A9A00EB010C7B69C0F80CC040F80190CE
:10155000CCF804204FF00102DFF84CB0002500F178
:10156000280600F1240E4FF0020ACCF820B02946DC
:10157000C0F8088007614361C0F83C8080F81CA077
:1015800085634563856182771861C4F824E06277DA
:101590008662C6627861FFF773FF85F31188204683
:1015A000BDE8F88F981000204102000800000000FC
:1015B0002DE9F04799460446202383F31188194EFC
:1015C000243947187369DFF860A0C76040F80190BC
:1015D0000899002500F128094FF0010C00F1240EB4
:1015E0004FF002087960C7F820A0294682600661A2
:1015F0004361C26380F81C8080F81EC04577856314
:10160000456385611861C0F824E0C0F82890C0F8EF
:101610002C907061FFF734FF85F311882046BDE8F8
:10162000F08700BF98100020410200080000000071
:10163000074B30B41A68996914680125087763600C
:1016400015771C60104630BC9A61FEF7F1BD00BFF3
:1016500098100020000000000000000000000000C2
:1016600010B5202383F311880B4CA269134653F85D
:10167000280F984208D001680D2491624B60002227
:10168000047782F3118810BD0E20FFF7D1FFA26905
:10169000906A02F12803EEE7981000200000000095
:1016A000202383F311888368013B002B836004DBD4
:1016B0000020002383F311887047034610B5084CBF
:1016C0000520A26913625968136051600A605A606C
:1016D000FFF7AEFFA369186A002383F3118810BDDA
:1016E0009810002000000000000000000000000032
:1016F00038B50446202383F31188037F0F2B07D0CE
:10170000084B426A9B6909201A606362FFF790FFE9
:10171000256A002383F311882046FFF7D1FD284670
:1017200038BD00BF9810002000000000000000003D
:1017300010B4044600228168074B02771B689A6840
:101740008A42FBD25A6820462360626014605C6063
:101750005DF8044B704700BF9810002000000000A7
:1017600042690346806910B582421DD09868541CB6
:1017700001305C619860117059691A6991420CD20C
:101780001A6893420ED011680024196010464B600D
:101790001462FFF7CDFF204610BDDA685A611A685F
:1017A0009342F0D1002010BD98680028DED06FF081
:1017B000030010BD00000000000000000000000059
:1017C0000E4B70B520229C6982F3118800F1280528
:1017D000067F2562C26A0E2E216325606260146056
:1017E000C46207D00C20FFF723FF206A002383F395
:1017F000118870BDFFF79CFFF4E700BF9810002030
:10180000436B027F19430A2A41630AD00B2A00D096
:101810007047036A19408B42FAD100230362FFF735
:1018200087BF036A1942F8D1704700BF000000006B
:1018300070B504680646A0420D460DD0E3682B4300
:10184000E36015B12269134203D06068A168FFF715
:10185000D7FF2468A642F1D170BD00BF0000000090
:10186000134A70B52023946983F31188A36BD3B115
:1018700000260BE0956B1168104619604B609A606A
:10188000DD609363FFF754FFA36B43B11A68D96817
:101890009342A163EED19E60A36B002BF6D1E36B64
:1018A000A360FFF7C5FD002383F3118870BD00BF5F
:1018B0009810002000000000000000000000000060
:1018C00030B40446114A2568C3689069AC4283630A
:1018D00017D0C16B4BB11A68934203D09268914202
:1018E00038BF1146DB68002BF5D1AA6B2B688160ED
:1018F000236028465C60A560E260AC6330BCFFF703
:1019000017BF0023A36030BC704700BF98100020B1
:10191000174B70B59D69202383F311880468C36851
:10192000A042AB631DD0E96B4BB11A68934203D060
:101930009268914238BF1146DB68002BF5D103460F
:101940002268A66B2046A9601A6053609C60DE6026
:10195000A363FFF7EDFEFFF76BFD002383F3118810
:1019600070BD00238360002383F3118870BD00BF26
:10197000981000200000000000000000000000009F
:10198000F8B582682F4B9C69002A55D0A1689368EE
:101990000546994206D9137F9160062B33D0072B59
:1019A0001DD09BB12B4603E09968A268914202D3F7
:1019B0001B689D42F8D15A682360626014605C60C5
:1019C00025620620BDE8F840FFF732BE92E80A0023
:1019D0001960104612685360FFF7AAFEE2E7176825
:1019E0005068166A076017683346786002E09868A6
:1019F000884202D31B689E42F9D159681360516036
:101A00000A605A60CEE717685068166A0760176860
:101A10003346786002E09868884202D31B689E4291
:101A2000F9D15968136051600A605A60B268A168C0
:101A300093688B42AFD3B5E7A36B8460C360A063A8
:101A4000F8BD00BF9810002000000000000000005A
:101A500008B5202383F31188FFF792FF002383F357
:101A6000118808BD00000000000000000000000018
:101A7000836802460133002B836000DD70470368F2
:101A800010B41968002411604A601C6218465DF8A1
:101A9000044BFFF74DBE00BF000000000000000037
:101AA00070B5856881600135002D0CDC04466FF04F
:101AB000010660680135436863601C60FFF738FE0B
:101AC000012D0662F5D170BD00000000000000008D
:101AD00038B50368044698420D4609D01A6818467E
:101AE000226054601D62FFF723FE23689C42F5D1FB
:101AF00038BD00BF00000000000000000000000032
:101B000038B50E4B9C69636A04F124059D4220623E
:101B100007D01A6818466262FFF70AFE636AAB4292
:101B2000F7D1637F9B0704D1226963691A61226937
:101B300053610F20BDE83840FFF77ABD98100020B0
:101B4000202383F31188FFF7DBBF00BF00000000F4
:101B50001C4B70B4DA6982420FD0026841681C33B2
:101B60000A60026800249A425160C46003D001896F
:101B700013890B44138170BC704719461568002007
:101B800041F81C5F8D426960D06016D04FF08040F4
:101B9000416A1689DC8C2A8989B2B3180A1B9BB268
:101BA00092B293422B81E6D99B1A9BB2012B98BF2C
:101BB00002230B449BB24363DDE74FF08043D860C0
:101BC000D9E700BF981000200000000000000000CE
:101BD000F0B51E4E4FF08047B6465EF81C4F7D6A4A
:101BE000012998BF022174450361C260ABB21DD0C8
:101BF0001944F38C89B22289CB1A9BB2934238BF25
:101C00007963934205D924689B1A22899BB29A4230
:101C1000F9D34FF6FF716268046042601060606043
:101C200003812289D31A2381B184F0BDCA1892B2EC
:101C30004FF0000E0225F384F061306204604460CE
:101C400001817A63C7F810E0FD60F0BD98100020B4
:101C50004FF6FF7330B5994287B012D005460C4C51
:101C600001A8A3690B4AFFF7B3FF2846FFF7E0FC82
:101C7000049B13B101A8FFF76BFFA369186A07B0B3
:101C800030BDFFF7D5FC024CA369186A07B030BD20
:101C900098100020D1110008000000000000000092
:101CA00003468068421E002A9A6001DB00207047CC
:101CB00010B461B1094A0520926913625C6882E838
:101CC000180022605A605DF8044BFFF7C1BF9860AE
:101CD0005DF8044B4FF0FF30704700BF98100020B4
:101CE00069B10246074B10B49B694468042083E83D
:101CF0001400236053605DF8044BFFF7A9BF4FF059
:101D0000FF30704798100020000000000000000025
:101D1000F8B504460F461646202383F3118805E0E4
:101D200020463146FFF7DCFF002817DBA568002DB1
:101D3000F6D06269A368511C013B6161A360177012
:101D4000236962699A4224BFE3686361E3690BB166
:101D500020469847002080F31188F8BD85F311884C
:101D6000F8BD00BF000000000000000000000000FF
:101D70002DE9F04F044683B0894693461D46D0F8BE
:101D80001C80202787F311880026B2460197B8F1FE
:101D9000000F07D02046C04704E020462946FFF741
:101DA0009FFFD0B9A768002FF7D0A269A368511C84
:101DB000013BA161A360137809F8013B2369A26983
:101DC0009A4224BFE368A3618AF311880136B345C0
:101DD00005D0019B83F31188D9E787F3118830463A
:101DE00003B0BDE8F08F00BF00000000000000005D
:101DF00070B520230E46044683F31188C3693BB1B6
:101E0000984705E020463146FFF76AFF002813DBBC
:101E1000A568002DF6D0A169A36825694A1C013B7D
:101E2000AA42A36028BFE368A261087828BFA36123
:101E3000002383F3118870BD85F3118870BD00BF46
:101E400008B50146202383F311880820FFF700FF1F
:101E5000002383F3118808BD00000000000000008B
:101E600010B5EFF30584C4F308041CB1002383F319
:101E7000118810BDFFF7DCFA84F3118810BD00BF94
:101E8000EFF30583C3F308031BB9202383F3118801
:101E90007047202383F31188704700BF00000000C3
:101EA000C20710B410D52A4A116891423ED00023CF
:101EB000096801339142FBD14C688C4232D064688E
:101EC000013B9442FBD16BBB830712D5204A1446D9
:101ED00054F81C1FA1422FD0002309680133A142EE
:101EE000FBD1126A8A421DD05268013BA242FBD14B
:101EF000C3B910F0040012D0154A1369934221D0DF
:101F000000201B6901309342FBD15969994209D0E5
:101F1000496901389142FBD1003018BF01205DF8BA
:101F2000044B704701205DF8044B7047546894429D
:101F300018BF0023C3D1C7E7126AA24218BF00230B
:101F4000D2D1D6E7596900209942E1D1E7E700BF35
:101F500098100020000000000000000000000000B9
:101F6000FEE700BF000000000000000000000000CD
:101F7000F0B4114E002506F1800796E81A00A3423E
:101F80000DD21A46043951F8040F42F8040BA2424C
:101F9000F9D3DA43144424F0030404342344F268EC
:101FA000934203D243F8045B9342FBD31036BE4204
:101FB000E3D3F0BC704700BF506900080000000088
:101FC000FEE700BF0000000000000000000000006D
:101FD000704700BF0000000000000000000000008B
:101FE000704700BF0000000000000000000000007B
:101FF000024B00221B605B609A607047380900202A
:1020000010B52F482F4C01F033F94FF4A87001F0B0
:102010003FF9204601F00CF92B4801F029F9442042
:1020200001F036F9204601F003F9284801F020F9C3
:10203000142001F02DF9204601F0FAF8244801F0AF
:1020400017F90C2001F024F9204601F0F1F821489D
:1020500001F00EF9042001F01BF9204601F0E8F828
:102060001D4801F005F9142001F012F9204601F095
:10207000DFF81A4801F0FCF8102001F009F92046B9
:1020800001F0D6F8164801F0F3F8082001F000F945
:10209000204601F0CDF8134801F0EAF8242001F0C1
:1020A000F7F8204601F0C4F80F4801F0E1F82820C5
:1020B00001F0EEF82046BDE8104001F0B9B800BFCD
:1020C000006A0008106A0008186A0008286A0008F8
:1020D000386A0008486A0008586A0008686A0008F8
:1020E000786A0008886A0008986A00080000000002
:1020F00038B500F0D5FF04F06BFB144D00241448F4
:10210000FFF7A6FC1248FFF703FC1148FFF7A0FCFD
:102110000F48FFF7FDFB0E48FFF79AFC0C48FFF74E
:10212000F7FB0B48FFF794FC0948FFF7F1FB2B780E
:102130000134002BE3D0074801F09AF8A00001F029
:10214000A7F8BDE83840044801F072B8E811002053
:1021500038090020A86A0008B86A000800000000DA
:1021600038B500F09DFF04F033FB144D00241448F3
:10217000FFF796FA1248FFF7B3F91148FFF790FA04
:102180000F48FFF7ADF90E48FFF78AFA0C48FFF742
:10219000A7F90B48FFF784FA0948FFF7A1F92B7854
:1021A0000134002BE3D0074801F062F8A00001F0F1
:1021B0006FF8BDE83840044801F03AB8E811002053
:1021C00048090020A86A0008C86A0008000000004A
:1021D0002DE98048C24F00254FF0FF3C3B69C7F80E
:1021E00010C03D61FB68C7F80CC0FD60FB69BD4ACB
:1021F00043F08053FB61FB69BB4E43F00063FB611E
:102200001368BA4943F480731360D7F81880DFF875
:1022100020E3B74CB74BB848DFF8189348F07D0877
:10222000C7F818808DB002F5244206F108084FF077
:10223000884B4FF0883AC1F80CC075604860C1F80F
:1022400000B0CEF80CC0CDF814C0C6F80880CEF8A7
:1022500004A0C6F80C80CEF80090E56065602560AB
:10226000D56055601560DD605D601D60FA69012113
:1022700006F1100042F0007231703061A3F5344372
:10228000FA61D3F8002206F12009120C120442F47C
:1022900060620A43C3F80022C3F84052C3F84452B4
:1022A000C3F80452C3F81452C3F80C12C3F81C123A
:1022B000D3F80022039122F00102C3F80022FA6948
:1022C00048F69F4A22F00072FA61C6F820904FF655
:1022D000FF7906F11804B4614FF6FF0406F11C0EF5
:1022E00006F1280206F124087061C6F81CE0C6F861
:1022F0002480B262F36204F033FAF869DFF838B28E
:1023000040F00100F861DBF80400039940F400603C
:10231000CBF80400DFF824E24FF08040DFF82082A1
:10232000C0F828A04FF0800B4FF0805AC0F82C90D6
:1023300085614563C560456041610160049188F82D
:102340001CB3C8F880A1C8F800A0CEF80850DEF889
:102350000C906A4809EA04042043694CCEF80C004A
:10236000E068DFF8E0A140F08070E060DAF800009B
:10237000644C40F00100CAF8000010204FF0200A21
:102380008EF81F008EF822A0DDF814C004F11C00A6
:10239000DFF8B491DFF8B4B1A4F824C00022002320
:1023A00024606460A56024616461E061206206A825
:1023B000CDE90A23CDF818C0C9F8ACB2E584256789
:1023C00007950895099503F0E3FF06A8FEF7D0FFEF
:1023D0004D484E4B20F007010898D4F814C003F183
:1023E000100E03910499C3F810E0C3F814E02067BD
:1023F0004FF0400E04F12C00C4F840C09D61C4F8B9
:1024000034E0C4F868E084F849506566256684F8CD
:102410004A106564E463CCF81000DFF834C19D60B5
:10242000DD606061A061C3F800C004F1500004F1F8
:102430005403374ADFF81CE1206563653548A3651E
:10244000039B22F0070284F84810CEF800200360B6
:1024500085F3118862B6DFF800E1A3690A46C3F884
:1024600018E0D82104F1780000952B4BFFF7A0F875
:102470002A4B836104F074F9C9F8ACB28AF311886D
:1024800099F80830012B00F0E0802549254A0868BA
:10249000D9F8AC32B2FBF0F29A608A88C888098910
:1024A00042F4045240F0400042F02C0241F001019D
:1024B00080B292B289B2002718614FF002085961C8
:1024C000DA601F601A685B6889F8088087F31188F2
:1024D000154B164C164DC82027601B6020273DE089
:1024E0000010024000700040080900200008014070
:1024F0000010014000180140344389880003FA05A8
:10250000F0ED00E09810002000500020E0080020CE
:10251000C71400202C0A002041120008D86A0008C5
:10252000180800200051250204090020000900209D
:10253000000C014044383333002004E000ED00E09B
:1025400000E100E0001000E00C1200200038014023
:10255000512E0008280A0020206D0008FFF770FCAB
:10256000802240236F61C8206A616B61FFF768FCBD
:102570003C4B4FF400714FF480622F6119611A6176
:1025800087F31188384BB0224FF400154FF48001C7
:1025900036484FF4002E4FF4801786F8008083F8F9
:1025A0001323C3F880E1C3F800E083F81423C3F8D1
:1025B00080711F6083F81523C3F880511D6083F874
:1025C0001623C3F880111960C169F36A284A41F0E3
:1025D00000710125C16172601D605968C80709D486
:1025E00001210820FFF734FBF36A224A5968C90722
:1025F000F6D552682048032192E8A0000022DF614E
:102600001D605861317082F311881C4E1C4D03E02F
:102610004FF4C870FFF714FC1A4863214FF6FF729D
:10262000FFF776FB206838B1037F0F2BF0D1FEF760
:1026300047FE00232B60EBE7009640F6C8014022DE
:10264000114BFEF76DFF2860E2E7BB69C02243F43F
:102650008043BB6188F82523C8F884A1C8F804A08A
:1026600013E700BF0008014000E100E00010024055
:10267000D0690008080900205B870100406D000850
:10268000000900203C120020B129000800000000D1
:102690000EB42DE9F04F86B00FAA52F8049B824683
:1026A000CB46154602920DF10D0303AA9B1A019326
:1026B0004FF000089BF800100BF1010379B12529B8
:1026C00013D09B46DAF800205046926890479BF85A
:1026D000001008F101080BF101030029EFD1404679
:1026E00006B0BDE8F04F03B070479BF8012000260C
:1026F0002D2A03BF9BF802200BF102034FF00109C2
:102700004FF00009302A03BF5A78013330272027C1
:10271000591C06E02B7804359BF8002003EB40069B
:102720000131A2F13003DBB2092B8B4606EB8600A8
:10273000F2D92A2AEED02E2A4FF0000143D002F01F
:10274000DF034C2B4ED0A2F14400342800F2F68077
:10275000DFE810F0EA00F400F400F400F400EA000E
:10276000F400F400F400F400F400E800F400F400D5
:10277000F400F400F400DD00F400F400F100F400D3
:10278000F400F400F400F400F400F400F400F400A9
:10279000F400A100EA00F400F400F400F400EA0000
:1027A000F400F400F400F400F400E800F400F40095
:1027B000F4007100F400DD00F400F400F1002B7867
:1027C000043503EB40011BF8012B01EB8100A2F162
:1027D0003003DBB2092BF4D92A2AF0D002F0DF0350
:1027E0004C2BB0D19BF80030002B00F0A780A3F158
:1027F00044020BF1010B342A00F29F80DFE802F063
:10280000949D9D9D9D949D9D9D9D9D929D9D9D9D15
:102810009D879D9D9B9D9D9D9D9D9D9D9D9D9D4B52
:10282000949D9D9D9D949D9D9D9D9D929D9D9D1B77
:102830009D879D9D9B002C68594B0435002C08BF3B
:102840001C462378002900F09380002B00F095802F
:102850000139204601E0013903D410F8013F002B73
:10286000F9D1001B361A431E202726EAE676B9F175
:10287000000F1FD0002B009334DA002E3FF41AAF64
:102880003446DAF8003050469B6839469847013C98
:10289000F7D1B0440EE7019A2B6810468DF80C3042
:1028A0000435531E202703AC361A26EAE676B9F122
:1028B000000FDFD10093C6F10009B9F1000F44D039
:1028C00021782D2946D04E46DAF8003050469B68D4
:1028D000394698470136F7D1009BC9EB0808002B11
:1028E000FFF6E8AEDDF80090DAF8003009F1FF39C4
:1028F0009B68504614F8011B9847B9F1FF3FF3D18C
:10290000009B08F10108002BA8BF9844B5E70A22F4
:10291000296803A8043503F07BFF03ABC01A431EEC
:1029200003ACC1E70822F3E72968043500292EDB50
:1029300003A80A22EFE71022EAE71A46019B03AC3C
:1029400018468DF80C20013BAEE7009B4E46002B4D
:10295000C8DAAFE6302FB6D1DAF8003050469B68BF
:102960009847009B0134013B08F101080093AAE756
:1029700047F6FE71002B7FF46CAF26EAE676B9F1DC
:10298000000F0BD14FF0FF330093202793E72D2347
:1029900049428DF80C300DF10D00CAE720276CE795
:1029A000E06A0008000000000000000000000000D5
:1029B0002DE9F047794B04689B69794A98B0D0F8C3
:1029C0000480784920469A61FFF762FE08AE0DF157
:1029D0005F0720467449FFF75BFE354623682046B3
:1029E0005B680DF107010122984770B39DF807104D
:1029F000042926D0082911D07F290FD00D2935D0E0
:102A00001F29EBD9BD42E9D2236820469B6898472D
:102A10009DF80730013505F8013CDFE7B542DDD010
:102A2000236820469B689847236820469B6820219E
:102A30009847236820469B689DF80710013D9847FA
:102A4000CCE720465949FFF723FE20465849FFF7B7
:102A50001FFE202383F3118800215648FEF7E8FE6D
:102A60000020FFF74DF818B0BDE8F0875249204626
:102A7000FFF70EFE002302A92B7030461D4603F01F
:102A8000EFFE02A9824600200DF10C0903F0E8FEDA
:102A900050B1042D1DD049F8040B02A900200135C6
:102AA00003F0DEFE0028F4D118AB03EB850343F8F6
:102AB000540CBAF1000F8CD050464049FDF7D0FBC2
:102AC00070B9002DC5D020463D493C4AFFF7E0FDD6
:102AD0007FE720463B49FFF7DBFD0023079378E7BC
:102AE00050463949FDF7BCFB30B92046C5B13449E1
:102AF000354AFFF7CDFD6CE7344B1868994618B995
:102B000031E059F8080F70B35146FDF7A9FB0028D2
:102B1000F7D1D9F80430294603AA2046984758E748
:102B20002B49FFF7B5FD294B1A681D463AB12046DF
:102B30002849FFF7ADFD55F8082F002AF7D1B8F165
:102B4000000F0BD0D8F8002042B14546204621495D
:102B5000FFF79EFD55F8082F002AF7D120461649A9
:102B6000FFF796FD35E7B8F1000F0DD0D8F800005B
:102B700050B1C14602E059F8080F28B15146FDF79F
:102B80006FFB0028F7D1C4E7524620461249FFF7F1
:102B90007FFD20461149FFF77BFD1AE798100020C2
:102BA000E86A0008F06A0008086B0008106B00086B
:102BB000706B000804090020C46C00082C6B00082E
:102BC000346B0008146B0008406B000800080020FC
:102BD000486B0008606B0008646B0008686B0008B5
:102BE000002903DD0849094AFFF752BD202383F37A
:102BF00011884FF080435A6A002383F311880449F7
:102C000092B2FFF745BD00BF346B00087C6B000833
:102C1000846B0008000000000000000000000000BD
:102C2000002903DD19491A4AFFF732BD10B50446E1
:102C300082B01849184AFFF72BFD20461749184A59
:102C4000FFF726FD20461749174AFFF721FD2046CA
:102C50001649174AFFF71CFD20461649164AFFF78A
:102C600017FD20461549164AFFF712FD2046154963
:102C7000154AFFF70DFD154B204600931449154AE0
:102C8000154BFFF705FD02B010BD00BF346B000807
:102C90008C6B0008946B0008A86B0008B06B0008F0
:102CA000C46B00080C6C0008206C0008286C00083D
:102CB0003C6C0008486C00085C6C0008746C0008F0
:102CC000886C0008B46C0008C86C0008086D000827
:102CD000E06C0008F86C0008046D000800000000BB
:102CE00070B5094E4C2430682D210368064D9B6851
:102CF0009847013CF7D128680449036802221B6801
:102D0000BDE87040184700BF5C090020C46C000893
:102D1000014B01221A707047E811002000000000EA
:102D2000024AD36843F08003D36070470038014003
:102D3000202383F311880F4B5B6813F4006302D1E7
:102D400083F311887047EFF309834FF0807243F8E3
:102D5000042CA3F1200282F30988074A11689269C2
:102D60008968926891428CBF044A054A43F8082C4E
:102D7000704700BF00ED00E09810002051020008ED
:102D800054020008000000000000000000000000E5
:102D90002DE9F0414FF0804423699B0703D4BDE83F
:102DA000F041FFF7C5BF00272761202585F3118873
:102DB0001E4E626AB6F826E0F36990B2CEEB0001CF
:102DC0001A8989B2914206F11C081BD31968724412
:102DD0004145F284DA68C1F80480F161DF6008BF20
:102DE000E76087F311881869904785F31188626A54
:102DF000B6F826E0F36990B2CEEB00011A8989B2E9
:102E00008A42E3D943450AD07244121A92B2012A87
:102E100098BF0222024492B24FF080435A630023CB
:102E200083F31188BDE8F041FFF782BF98100020BE
:102E3000EFF30983203383F30988002383F3118898
:102E4000704700BF0000000000000000000000000C
:102E500010B4202383F31188094C0A4B22681968A7
:102E6000C31D23F00703891A8B429DBF9B18236063
:102E700010460020002383F311885DF8044B70474F
:102E8000280A00202C0A002000000000000000009A
:102E900038B5154DEB6A5C6822075C6011D4630796
:102EA0000BD5EA6A2023916983F311880F4809043E
:102EB000FEF7BEFC002383F31188BDE83840FFF71E
:102EC00037BF28461A68032122F0020200F8281BA7
:102ED00020211A6081F311880021FEF7A9FC00234C
:102EE00083F31188DBE700BF0809002028090020D0
:102EF00038B5164DEB6A1C69A20711D1E3060BD554
:102F0000EB6A10211961202383F311881048FEF722
:102F10008FFC002383F31188BDE83840FFF708BF1A
:102F20005A69202122F010025A6181F31188002190
:102F300005F11000FEF7CCFD05F118000221FEF7A7
:102F400077FC002383F31188D8E700BF080900202D
:102F50002809002000000000000000000000000020
:102F600038B5164DEB6ADC68A20711D1E3060BD524
:102F7000EB6A1021D960202383F311881048FEF7F3
:102F800057FC002383F31188BDE83840FFF7D0BE1B
:102F90005A69202122F002025A6181F3118800212E
:102FA00005F11000FEF794FD05F118000121FEF770
:102FB0003FFC002383F31188D8E700BF08090020F5
:102FC00028090020000000000000000000000000B0
:102FD000184B10B5DA6A936813F00104936005D0BA
:102FE00013F00C0F14BF4FF480340124D90506D51B
:102FF00013F4406F14BF44F4003444F00204DA03C5
:1030000006D513F4402F14BF44F4802444F0040484
:10301000202383F3118808480021FEF759FD21463B
:103020000648FEF705FC002383F31188BDE8104035
:10303000FFF77EBE080900201009002024090020A7
:103040000C30FEF795BE00BF00000000000000003D
:103050000C304FF6FF73FEF78BBE00BF0000000080
:103060000C30FEF7C5BE00BF0000000000000000ED
:103070000C304FF6FF71FEF7BBBE00BF0000000032
:103080003030FEF745BE00BF000000000000000029
:1030900030304FF6FF72FEF73BBE00BF000000006D
:1030A00008B50120FEF7CCFE202383F311884FF0F2
:1030B0008043586A002383F3118880B208BD00BFA3
:1030C00070B5074C002604F1140554F8040B18B130
:1030D000FEF70EFB44F8046CAC42F6D170BD00BFA5
:1030E000040A0020000000000000000000000000B2
:1030F0000A4B30B403F114002025002453F8042BAC
:103100003AB185F31188517F41F00401517784F37E
:1031100011888342F2D130BC704700BF040A0020FE
:1031200010B4202383F311884FF080435C6A00239E
:1031300083F31188521A641AA1B292B2914206D353
:10314000054C0649064A012323700B70106018468F
:103150005DF8044B704700BF580900205909002052
:1031600070090020000000000000000000000000C6
:10317000F0B40E4E0E4F35683B4605E013F8014B98
:1031800011F8012B944207D1AB42F7D30B781BB94E
:1031900037601846F0BC7047064C0749074A0123C0
:1031A000237010600B701846F0BC70475409002063
:1031B00060090020580900205909002070090020EA
:1031C00059B910B40649074C074A0123237010600F
:1031D0000B7018465DF8044B704700231846704783
:1031E0005909002058090020700900200000000043
:1031F00010B4202383F31188054B00211A68541C56
:1032000010701C6081F311885DF8044B704700BF9B
:103210005409002000000000000000000000000031
:103220000078FFF7E5BF00BF0000000000000000CD
:1032300070B501780446094D39B1286803689B6868
:10324000984714F8011F0029F7D12868044903683A
:1032500002221B68BDE87040184700BF5C090020CF
:10326000C46C000800000000000000000000000026
:1032700038B50178044641B1044D286803689B685D
:10328000984714F8011F0029F7D138BD5C090020C8
:1032900010B370B584B06D466C46124AA2FB0013A1
:1032A000DB0803EB8301A0EB410000F13001C9B260
:1032B00004F8011B1846002BF0D1AC420AD90A4E83
:1032C000013C01E014F8011D306803689B689847D1
:1032D000AC42F7D104B070BD034B302118680368CD
:1032E0009B681847CDCCCCCC5C09002000000000C6
:1032F0002DE9F04F9F4C83B020609F48FFF798FF67
:103300009E48FFF795FF9E4D9E48FFF791FF2A21AB
:10331000206803689B68984715F8011F0029F7D1BA
:1033200099489A4DFFF784FF2A21206803689B681B
:10333000984715F8011F0029F7D19548954DFFF7DB
:1033400077FF2A21206803689B68984715F8011FBA
:103350000029F7D19048914DFFF76AFF2A21206894
:1033600003689B68984715F8011F0029F7D18C481E
:103370008C4DFFF75DFF2A21206803689B68984702
:1033800015F8011F0029F7D18748884DFFF750FF36
:103390002A21206803689B68984715F8011F0029B7
:1033A000F7D18348834DFFF743FF2A212068036844
:1033B0009B68984715F8011F0029F7D17E487F4D7B
:1033C000FFF736FF2A21206803689B68984715F8A5
:1033D000011F0029F7D17A480091FFF729FF6648BD
:1033E000FFF726FF774B0099774F1970774BDFF87F
:1033F00084B10193009B00260133009357F82630D7
:1034000007EB8608002B00F08B80714DFFF768FCFE
:103410002D21206803689B68984715F8011F002933
:10342000F7D10098FFF734FFDBF800002E21036886
:1034300001369B689847674D3046FFF729FF2021EA
:10344000206803689B68984715F8011F0029F7D189
:10345000D8F800301D68297839B1206803689B6866
:10346000984715F8011F0029F7D15B48FFF7E0FEE8
:103470004FF4C870FEF7E4FC584AD8F800A00023C7
:10348000136053609360D3601361DFF87C81544D07
:10349000DFF85C91DAF8042088F80030C5F8009075
:1034A00002B19047DAF80C309847DAF8083003B1E7
:1034B0009847FFF705FE98F80030002B4FD0494F92
:1034C0002D21206803689B68984717F8011F002981
:1034D000F7D1454B454F1868FFF7DAFE20212068E9
:1034E00003689B68984717F8011F0029F7D12B68DC
:1034F0004B4509D93E4F206817F8011B03689B68AC
:1035000098472B689F42F6D33A48FFF791FE019BFC
:103510001F6857F8263007EB8608002B7FF475AF3D
:10352000019B53F8047F0193002F7FF463AFFFF7F3
:10353000D7FB314D1048FFF77BFE4621206803681A
:103540009B68984715F8011F0029F7D11D4B1B7880
:103550004BB92A4803B0BDE8F04FFFF769BE2848D1
:10356000FFF766FE4AE7274803B0BDE8F04FFFF7D4
:103570005FBE00BF5C0900206C6B00081072000881
:10358000307100082C720008A86B00084471000814
:103590005472000858710008C46B00086C71000870
:1035A000206C0008807100083C6C000894710008D1
:1035B0005C6C0008A8710008886C0008BC710008E9
:1035C000C86C000858090020006F0008706F0008E0
:1035D000D0710008E071000830720008040A002071
:1035E00054090020E471000870090020FC710008F3
:1035F000600900203472000800720008447200085C
:10360000387200084C7200085909002000000000C0
:103610001F4B19461A6842F001021A600B681C4AD7
:103620009B07FBD511461368002003F0F9031360D4
:1036300050604B68164A13F00C0FFAD1114613680C
:1036400043F4803313600B68114A9803FBD511468D
:10365000536843F4E8135360136843F080731360B6
:103660000B680B4A9B01FBD5114610B4094B0A4C61
:10367000122054601860536843F0020353604B6893
:1036800003F00C03082BFAD15DF8044B704700BF20
:10369000001002400020024000641D0000000000F5
:1036A00008B52022034682F31188006828B1026819
:1036B0001A60002383F3118808BD9A68002AF8D0A5
:1036C00058689047002383F3118808BD000000006C
:1036D00070B50F4C0E46002818BF044604F11005C3
:1036E0002846FEF7B5F9A36873B10022144658685E
:1036F0001B6801340244002BF9D106B13260284620
:10370000FEF706F9204670BD1A461C46F5E700BFD5
:10371000E0080020000000000000000000000000A1
:10372000F8B550F8085C064605F11007A0F108044A
:1037300008353846FEF78CF92B46AB4204D0A3423D
:1037400002D31B68AB42FAD11A681AB1944201D372
:103750001346F2E756F8041C46F8082C1C6001F1E9
:10376000080256F8085CA018A8420AD0596801F16E
:1037700008021A44944210D03846BDE8F840FEF7DB
:10378000C7B84568A0584A19083206E905005968C3
:1037900001F108021A449442EED116E905000A44E8
:1037A000083283E805003846BDE8F840FEF7B0B8B7
:1037B000F8B5214E0731002818BF064606F110075C
:1037C000384621F0070506F10804FEF741F903E049
:1037D00043689D4212D9044620680028F8D1384633
:1037E000FEF796F8336823B305F10800984700B355
:1037F0000660456000F108042046F8BD05F10801A7
:10380000994209D9036823600446384644F8086B96
:10381000FEF77EF82046F8BD6FF0070EC5EB0E0EE2
:103820009E44036842184350C2F804E02260456099
:10383000EAE70024E0E700BFE00800200000000005
:103840002DE9F04F83B004468B4615460193C769B6
:103850004FF0200888F311880026B146A3680BF1C9
:10386000010AFBB16269A368501C013B6061A3605F
:103870009BF800301370236962699A4224BFE368A1
:1038800063610FB12046B84789F31188013D06F105
:10389000010611D088F31188D346A3680BF1010A01
:1038A000002BDFD1204601990093FEF719FA009B07
:1038B0000028D3D083F31188304603B0BDE8F08FE1
:1038C0003030FFF7BDBF00BF000000000000000067
:1038D00030304FF6FF73FFF7B3BF00BF00000000AA
:1038E00038B5426983699A4219D082680569591CC2
:1038F000013282608161A9421C780DD20268904237
:1039000008D003461168002501604B60104615621F
:10391000FDF70EFF204638BDC3688361EEE782687D
:10392000002AE2D06FF0020038BD00BF00000000A6
:103930002DE9F0414B4FD7F8AC52D5F80C802B68ED
:10394000DE059CB25ED4202383F3118814F02F0F80
:1039500008D131E0A0066E681DD42C68A4B214F022
:103960002F0F29D02007F5D014F0080F0CBF00212D
:103970008021E20748BF41F02001A30748BF41F082
:103980004001660748BF41F480713748FDF750FF9A
:10399000A0066E68E1D57B697BB3F1B23348FDF7D1
:1039A000DFFE0028D9DA30488021FDF741FF2C687E
:1039B000A4B214F02F0FD5D1002383F3118818F08F
:1039C000800F01D022062CD4630612D5202383F366
:1039D00011887A6CBB6C23489A422FD04FF6BF7384
:1039E0006FF0400208EA0303EB6000232A6083F3D0
:1039F0001188BDE8F041FFF79BB91B480421FDF792
:103A000017FFCAE7202383F311884FF40071381D94
:103A1000FDF70EFF6FF480732B60002383F3118892
:103A200091E7202383F311881148FFF759FF0028FD
:103A30000CDB6860002383F31188C5E7836B002BE0
:103A4000CCD004301021FDF7F3FEC7E7064808216B
:103A5000FDF7EEFE4FF63F7308EA030343F0400321
:103A6000EB60E7E70C120020101200201812002073
:103A70003C120020000000000000000000000000D8
:103A800070B40B4B0B4A052502F11406002403F118
:103A90001C0003F110015E605D629C611A60DA60D7
:103AA0009A60D86118621961596170BC704700BF93
:103AB000AC080020300A00200000000000000000D8
:103AC000064A074B074900200960496012605260AE
:103AD000906098601B605B60704700BF2408002006
:103AE00034080020D408002000000000000000007E
:103AF000044B054A0021126052601B605B609960B4
:103B0000704700BF24080020D408002000000000F7
:103B1000044B054A0021126052601B605B60996093
:103B2000704700BF24080020D408002000000000D7
:103B30002DE9F041202382B083F31188954D0120B7
:103B4000696AA1F10501B1FA81F14909FFF738FB72
:103B5000002840F0898080F31188422420464FF6E7
:103B6000FF7102F025FDB0FA80F102204909FFF74C
:103B700027FB013470B9462CF0D14FF6FF7141207C
:103B800002F05EFDB0FA80F103204909FFF718FB4F
:103B900000286FD002B0BDE8F08186F3118887F36A
:103BA0001188A1692A20B1FA81F14909FFF708FBC0
:103BB000002840F0998286F31188E168A3682B20E1
:103BC000C3EB010EDEF1000141EB0E01FFF7F8FA45
:103BD0000028DFD187F311882368626804F11C0094
:103BE000D11A8910A360E360FDF75AFF04F11000B9
:103BF0003146FDF755FFFDF71BFC86F3118887F36F
:103C00001188616A2C204D1F69426941FFF7D8FA7B
:103C1000002840F0698286F3118887F31188A16932
:103C20002D20B1FA81F14909FFF7CAFA002840F0C6
:103C30005B8286F3118887F311882168A3682E20A0
:103C4000CA1A51425141FFF7BBFA002840F04C829A
:103C500086F3118887F311882168E3682F20CB1A37
:103C600059425941FFF7ACFA002383F3118802B09F
:103C7000BDE8F0810121582002F09AFCA0F1FF314B
:103C8000B1FA81F104204909FFF79AFA04460028A5
:103C900080D1202686F31188582002F0B1FC01461D
:103CA00084F31188A1F1FF31B1FA81F105204909AE
:103CB000FFF786FA00287FF46DAF0121582002F04B
:103CC000BFFCA0F1FF31B1FA81F106204909FFF7ED
:103CD00077FA044600287FF45DAF86F311885820F8
:103CE00002F0D6FC014684F31188A1F1FF31B1FA4C
:103CF00081F107204909FFF763FA804600287FF425
:103D000049AF86F31188696A0820B1FA81F149093F
:103D1000FFF756FA1F4C074610B188F3118839E7B0
:103D200080F3118886F31188A1690920A1F1050E9D
:103D3000DEF1000141EB0E01FFF742FA10B187F30B
:103D4000118827E780F3118886F31188E168A3685A
:103D50000A20CF1A79427941FFF732FA002300286E
:103D600083D183F31188052405E09DF80400FFF753
:103D70003FFA013C10D04FF6FF7101A802F0A8FCF9
:103D8000B0FA80F10B204909FFF71AFA0028ECD0AD
:103D900000E700BFAC0800200C20D549FFF7E8F988
:103DA00000287FF4F7AE4FF6FF71472002F000FCC9
:103DB000B0FA80F10D204909FFF702FA00287FF4DC
:103DC000E9AE4FF6FF7101A802F082FCB0FA80F173
:103DD0000E204909FFF7F4F900287FF4DBAE2968CB
:103DE000AB680F20CE1A71427141C24EFFF7E8F95D
:103DF00000287FF4CFAE3168F3681020CA1A514210
:103E00005141FFF7DDF900287FF4C4AE012101A87C
:103E100002F05EFC431C594259411120FFF7D0F9D2
:103E200000287FF4B7AE202787F3118801A802F09D
:103E300077FC014684F3118801F10108D8F10001F3
:103E400041EB08011220FFF7BBF900287FF4A2AE76
:103E500087F31188716A1320A1F1050CDCF10001D0
:103E600041EB0C01FFF7ACF900287FF4FDAE4FF0F9
:103E7000000888F31188202484F31188A96914208C
:103E8000B1FA81F14909FFF79BF99A4E07460028DC
:103E90007FF443AF80F3118884F31188F168B3682D
:103EA0001520C3EB010EDEF1000141EB0E01FFF71F
:103EB00087F900287FF443AF80F3118884F31188D9
:103EC000412002F09DFBB0FA80F116204909FFF76E
:103ED00077F900287FF45EAE422002F091FBB0FA41
:103EE00080F117204909FFF76BF900287FF452AEE3
:103EF000432002F085FBB0FA80F118204909FFF752
:103F00005FF900287FF446AE442002F079FBB0FA56
:103F100080F119204909FFF753F9074600287FF47B
:103F200039AE452002F06CFB87F31188B0FA80F1BE
:103F30001A204909FFF744F900287FF42BAEF168F5
:103F4000B3681B20CE1A71427141FFF739F900287E
:103F50007FF420AE804626460524202786F311886C
:103F600001A802F0DDFB88F31188B0FA80F11C2073
:103F70004909FFF725F900287FF40CAE9DF80400ED
:103F8000FFF736F9013CE8D11D205949FFF7F0F859
:103F900000287FF4FFAD87F31188696A1E204A1F4D
:103FA00051425141534EFFF70BF910B184F3118880
:103FB000F0E584F3118887F31188B1691F20B1FA05
:103FC00081F14909FFF7FCF80028EFD184F311884B
:103FD000F168B3683846CB1A59425941FFF7F0F8F7
:103FE00000287FF4D7AD87F31188452002F050FBFD
:103FF000B0FA80F121204909FFF7E2F800287FF4A8
:10400000C9AD442002F044FBB0FA80F122204909F6
:10401000FFF7D6F800287FF4BDAD432002F038FB4F
:10402000B0FA80F123204909FFF7CAF800287FF48D
:10403000B1AD422002F02CFBB0FA80F124204909F6
:10404000FFF7BEF800287FF4A5AD412002F020FB69
:10405000002383F31188B0FA80F125204909FFF786
:10406000AFF800287FF496ADE968AB682620C3EB73
:104070000108D8F1000141EB0801FFF7A1F8002881
:104080007FF488AD044605264FF02008202788F3EA
:10409000118801A802F044FB84F31188B0FA80F182
:1040A00027204909FFF78CF800287FF473AD9DF8AD
:1040B0000400FFF79DF8013EE8D128200C49FFF7E6
:1040C00057F800287FF466AD87F31188696A2920C4
:1040D000A1F1050CDCF1000141EB0C01054CFFF7EF
:1040E0006FF800283FF459AD86F3118852E500BF00
:1040F0003C690008AC08002000000000000000003F
:1041000010B504464121FDF75BFB20464221FDF737
:1041100057FB2046BDE810404321FDF751BB00BFCF
:1041200070B51F4B82B09C694FF4A471A2681D4BFF
:10413000013200941C48FDF73BFA1C4B2025186007
:10414000FDF78EFA066B85F311883146FDF798F975
:10415000002484F31188F0B2FFF74AF8FDF780FAE3
:10416000066B85F311883146FDF78AF984F31188CF
:10417000F0B2FFF73DF8FDF773FA066B85F311888F
:104180003146FDF77DF984F31188F0B2FFF730F87E
:104190000749012002B0BDE87040FEF7E9BF00BF4B
:1041A0009810002001410008300A0020040A002075
:1041B0006077000800000000000000000000000020
:1041C00070B5194B194D9A69194B966882B0721CDB
:1041D000009328464FF4A471164BFDF7E9F9164CED
:1041E000164B2060B21C009305F5A4704FF4A47127
:1041F000134BFDF7DDF9134BF21C4FF4A471606013
:10420000009305F52470104BFDF7D2F9A06002F081
:104210004FF902F04DF9FEF753FF0C49012002B0AF
:10422000BDE87040FEF7A4BF98100020300A0020BF
:104230003469000871420008040A00203869000847
:104240000143000830690008514200086077000807
:1042500038B50546054C2046FDF7FAFB2878FEF7F1
:10426000C7FF2046BDE83840FDF752BB34080020A8
:10427000F8B507461C48FDF7EBFB1C48FDF7E8FBCB
:10428000202383F311881A4DAB699E6B3046FDF7EE
:1042900017FB184AAC6910461346226203E099687E
:1042A000A268914202D31B688342F8D15A68072062
:1042B0002360626014605C60FDF7BAF9AB691B6A49
:1042C000013302D03046FDF75BFB002383F31188F6
:1042D0003878FEF78DFF0548FDF71AFBBDE8F8407A
:1042E0000148FDF715BB00BF34080020240800205A
:1042F00098100020D40800200000000000000000FA
:1043000070B506461648FDF7A3FB202383F31188FA
:10431000144B9C69A56B2846FDF7D2FA124A104649
:104320001346226203E09968A268914202D31B6897
:104330008342F8D15A6807202360626014605C6091
:10434000FDF776F92846FDF71BFB002383F3118860
:104350003078FEF74DFFBDE870400148FDF7D8BA50
:104360002408002098100020D4080020000000003D
:1043700030B52C4A2C4B926983B095684FF4A471E8
:104380006A1C009329482A4BFDF712F9294C2A4B45
:104390002060AA1C00934FF4A471254B2748FDF719
:1043A00007F9274B6060EA1C00934FF4A471204B7F
:1043B0002448FDF7FDF8244BA0602A1D00934FF41C
:1043C000A4711B4B2148FDF7F3F8214BE0606A1DF7
:1043D00000934FF4A471164B1E48FDF7E9F8202313
:1043E000206183F311881C4C2368A34218BF6FF02F
:1043F000010509D01A68184654602260FDF798F943
:1044000023680562A342F5D1FDF712F8002383F378
:104410001188FEF755FE1149012003B0BDE8304078
:10442000FEF7A6BE9810002040690008300A002060
:1044300001430008040A002048790008780B002096
:1044400038690008C00C002030690008080E002000
:1044500034690008500F0020D40800203C6900088F
:10446000F0B52C4B2C4E9B692C4D9F682C4983B08A
:104470007A1C2B46009130464FF4A471FDF798F852
:10448000284C29492060BA1C2B46009106F5A470DF
:104490004FF4A471FDF78CF824496060FA1C2B4698
:1044A000009106F524704FF4A471FDF781F82049BE
:1044B000A0603A1D2B46009106F576704FF4A4716A
:1044C000FDF776F81B49E0602B4600917A1D06F552
:1044D000A4604FF4A471FDF76BF82023206183F3EF
:1044E000118801F0FDFF01F0FBFF01F0F9FF01F081
:1044F000F7FF01F0F5FFFCF79BFF002383F3118822
:10450000FEF7DEFD0C49012003B0BDE8F040FEF7E8
:104510002FBE00BF98100020300A00200143000881
:1045200040690008040A002048790008386900083A
:1045300030690008346900083C6900080000000088
:104540002DE9F0413B4D2023AA69966883F3118839
:10455000394C0021A368002B5ED0002383F311881F
:104560000120FEF72DFE014608B1BDE8F0812023B1
:1045700083F31188A368304A002B54D00121002313
:1045800083F311880220FEF71BFE07460028ECD1BA
:10459000202383F31188DFF8A0804046FDF790F9CF
:1045A00087F3118821680320091BB1FA81F14909B9
:1045B000FEF706FE0028D8D1D8F808100420B1FA7A
:1045C00081F14909FEF7FCFD0028CED1AB69052039
:1045D0009968711AB1FA81F14909FEF7F1FD0028D5
:1045E000C3D14046FDF734FAFDF73AF9D8F8001088
:1045F0000620C8EB0101B1FA81F14909FEF7E0FD9F
:104600000028B2D1D8F808100720B1FA81F1BDE82E
:10461000F0414909FEF7D4BDAB6901219A6BA36053
:10462000E2609C6399E7AB69986B9360D0609A6392
:10463000A5E700BF9810002024080020000000001B
:10464000704700BF000000000000000000000000F4
:1046500030B4084A084B0948151D042400211D6187
:104660009C601B605B60DA609A615A61D861196274
:1046700030BC7047300A0020740800204146000812
:10468000084A094B094810B40021141D1C611B6025
:104690005B60DA609A615A61D861996019625DF86D
:1046A000044B7047300A00205008002041460008A3
:1046B000094910B400224FF4CC64084B81E814007F
:1046C00003F11000DA609960186158611A609A610C
:1046D0005DF8044B704700BF300A002098090020A5
:1046E000034B00224FF4A47159601A609A6070471E
:1046F000EC1100200000000000000000000000009D
:10470000094910B400224FF4CC64084B81E814002E
:1047100003F11000DA609960186158611A609A61BB
:104720005DF8044B704700BF300A00209809002054
:1047300000207047000000000000000000000000A2
:10474000034B00224FF4A47159601A609A607047BD
:1047500044080020000000000000000000000000ED
:10476000094910B400224FF4CC64084B81E81400CE
:1047700003F11000DA609960186158611A609A615B
:104780005DF8044B704700BF300A00207809002014
:1047900002484FF4C871FDF72BBB00BF5008002042
:1047A0000078FEF725BD00BF0000000000000000FB
:1047B000F0B5202483B084F31188904B01209968D0
:1047C000B1FA81F14909FEF7FBFC0646E8B980F32E
:1047D000118884F311884124884D214601342846EC
:1047E000E4B2FCF7BDFF452CF6D1002383F311881A
:1047F000202383F31188AA696B699A4238D0314625
:104800000220FEF7DDFC044620B1002383F311886B
:1048100003B0F0BD80F31188202383F3118877481B
:104820002146FCF79DFF043014BF00210121032025
:10483000FEF7C6FCC0B980F3118804246F4D4FF613
:10484000FF712846FDF7D4FAC0B2FEF7D1FC013C57
:10485000F4D1202686F31188A9680420B1FA81F1E9
:104860004909FEF7ADFC40B184F3118803B0F0BDF7
:10487000AE68003618BF0126C1E784F31188052011
:104880005F49FEF775FC0028C2D186F311884124E8
:104890005A4D214601342846E4B2FCF761FF452C0D
:1048A000F6D1002383F31188564908222846FDF7E4
:1048B0005FFAA0F10401B1FA81F106204909FEF77F
:1048C0007FFC04460028A3D1202686F31188A9681E
:1048D0000720B1FA81F14909FEF772FC0028C3D123
:1048E00080F3118886F311884124444D2146013418
:1048F0002846E4B2FCF734FF452CF6D1002383F3BD
:104900001188404928460222FDF732FAA0F102013F
:10491000B1FA81F108204909FEF752FC00287FF422
:1049200077AF0346374902222846FDF721FAA0F166
:104930000201B1FA81F109204909FEF741FC06465E
:1049400000287FF465AF202787F31188A9680A2023
:10495000B1FA81F14909FEF733FC044610B186F340
:10496000118855E780F3118887F31188214628467E
:10497000FCF7F6FEEB6828466FF00101AC60AB6116
:104980006B61FDF7A5F884F3118887F31188A96896
:104990000B20B1FA81F14909FEF712FC0646002806
:1049A0007FF462AF80F31188174B4FF4A4719B69B9
:1049B00016489A68164B01320096FCF7F9FD154B24
:1049C000186087F31188A9680C20B1FA81F14909B0
:1049D000FEF7F6FB0028C2D180F31188FEF770FBCA
:1049E00028460A21FDF704FA431C594259410D207B
:1049F00003B0BDE8F040FEF7E3BB00BF5008002065
:104A000070770008780B002098100020300A0020F2
:104A100091470008040A0020000000000000000088
:104A200038B50546202383F311880A4B00241B69FF
:104A30009A7F01329A7784F311881846AB4208BFF7
:104A400044F00104FCF77CFC03460028F5D1204625
:104A500038BD00BF981000200000000000000000DA
:104A600010B54A4A4A4B926982B092684FF4A471D9
:104A700000934848013A484BFCF752FD817F0446B9
:104A80000120091AB1FA81F14909FEF799FB08B131
:104A900002B010BD202383F31188A37F0133A377D5
:104AA00080F31188A17F0220091AB1FA81F1490926
:104AB000FEF786FB0028EBD12046FCF701FCA17F26
:104AC0000320A1F10101B1FA81F14909FEF778FB58
:104AD0000028DDD12046FFF7A3FF01460420FEF7A2
:104AE0006FFB0028D4D12046FFF79AFF014605202E
:104AF000FEF766FB0028CBD12046FCF7E1FBA17F47
:104B00000620B1FA81F14909FEF75AFB0028BFD10E
:104B1000217F0720B1FA81F14909FEF751FB0028F6
:104B2000B6D12046FFF77CFF01460820FEF748FB80
:104B30000028ADD12046FFF773FF01460920FEF79C
:104B40003FFB0028A4D16420FDF77AF9217F0A20D9
:104B5000A1F10F0359425941FEF732FB002897D1CA
:104B60002046FFF75DFF01460B20FEF729FB0028DA
:104B70008ED12046FFF754FF80F00101C9B20C200E
:104B800002B0BDE81040FEF71BBB00BF981000202C
:104B90003469000898090020A147000800000000BF
:104BA00070B52F4B2F4C05222025002085F311884E
:104BB00021682360196080F311886168013A0B4411
:104BC000F4D105252748FEF76BFD011C18BF012114
:104BD0000120FEF7F5FA90BB013DF3D12148FEF725
:104BE0005FFDB0FA80F102204909FEF7E9FA30BB17
:104BF0001D4B202603F1140053F8042B86F3118873
:104C000021681160226085F311888342F4D1052464
:104C1000144D2846FEF744FD011C18BF0121032056
:104C2000FEF7CEFA58B9013CF2D12846FEF738FD1E
:104C3000B0FA80F104204909FEF7C2FA00B170BD54
:104C40000A4A102328462C60AA606B60FEF728FDF4
:104C5000BDE87040B0FA80F105204909FEF7B0BA0E
:104C6000300A0020440800208077000831470008FF
:104C70002F4AF8B592692F4B2F49956803F1100719
:104C80002026002453F8042B86F31188086810604E
:104C90000A6084F31188BB42F4D12849681E01F0F0
:104CA0007FFB274C27492060A81E01F079FB26498D
:104CB0006060E81E01F074FB2449A060281F01F029
:104CC0006FFB2349E060681F01F06AFB21682061E7
:104CD00041B1616831B1A16821B1E16811B1B0FAA7
:104CE00080F149090120FEF76BFA00B1F8BDFEF72B
:104CF000E7F902201749FEF73BFA0028F6D1042411
:104D00000D48FEF7CDFC011C18BF01210320FEF762
:104D100057FA0028EAD1013CF2D10748FEF7C0FC5F
:104D2000BDE8F840B0FA80F104204909FEF748BA1E
:104D30009810002080770008EC11002034690008EA
:104D4000040A002030690008386900084879000822
:104D500040690008707700080000000000000000B3
:104D600070B5344B84B09B6903A933489D68FEF746
:104D7000AFFC324B6A1E00934FF4A471304B2E48A7
:104D8000FCF7CEFB2F4C304BAA1E206000934FF453
:104D9000A4712B4B2848FCF7C3FB02A9606026488E
:104DA000FEF796FC02992448FEF702FD274B4FF4CC
:104DB000A4710646EA1E00931F48214BFCF7B0FB86
:104DC000A0603046FEF7ACFC216821B1616811B1EA
:104DD000A16831B300210120FEF7F2F908B104B057
:104DE00070BDFEF76DF902201949FEF7C1F90028E0
:104DF000F5D102A91048FEF76BFCA0F10101B1FA50
:104E000081F103204909FEF7DBF90028E7D1029977
:104E1000039B0420C91AB1FA81F14909FEF7D0F9C0
:104E2000DDE7E368002BD6D12169B1FA81F14909A8
:104E3000D1E700BF981000209809002034690008CD
:104E4000A1470008040A00203069000838690008FA
:104E5000787700080000000000000000000000005B
:104E600070B582B001A90020FEF732FC10210020AD
:104E7000FEF79EFC011C054618BF01210120FEF72C
:104E80009FF9044608B102B070BD2846FEF748FC01
:104E90006FF0FF012046FEF78BFCB0FA80F1022094
:104EA0004909FEF78DF90028EDD101A97B48FEF7ED
:104EB0000FFC10217948FEF77BFC1021064677484D
:104EC000FEF776FC102105467448FEF771FC044697
:104ED0003046FEF725FC2846FEF722FC2046FEF76A
:104EE0001FFC69466D48FEF7F3FBA0F10101B1FA22
:104EF00081F103204909FEF763F90028C3D110218D
:104F00006648FEF755FC102104466448FEF750FC45
:104F1000054610216148FEF74BFCFEF701FC2846D0
:104F2000FEF7FEFB2046FEF7FBFB69465B48FEF7FB
:104F3000CFFBA0F10101B1FA81F104204909FEF78C
:104F40003FF900289FD111215448FEF731FC102170
:104F500004465248FEF72CFC05462046FEF7E0FBCF
:104F600069464E48FEF7B4FBA0F10201B1FA81F1A7
:104F700005204909FEF724F9002884D1102147486B
:104F8000FEF716FC694604464448FEF7A1FB0128DB
:104F900000F0818069464148FEF79AFBA0F10201CA
:104FA000B1FA81F149090620FEF70AF900287FF4D9
:104FB0006AAF2846FEF7B4FB2046FEF7B1FB694610
:104FC0003648FEF785FB461E714271410720FEF709
:104FD000F7F800287FF457AF10213048FEF7E8FBC0
:104FE000102105462D48FEF7E3FB04462846FEF750
:104FF00097FB69462948FEF76BFB851E69426941AC
:105000000820FEF7DDF800287FF43DAF202123487B
:10501000FEF7CEFBFEF784FB2046FEF781FB6946D8
:105020001E48FEF755FB0138414241410920FEF779
:10503000C7F800287FF427AF69461848FEF748FBF9
:1050400000991648FEF7B4FB694604461348FEF77C
:105050003FFBB0FA80F10A204909FEF7B1F80028B9
:105060007FF411AF2046FEF75BFB69460B48FEF765
:105070002FFB421E514251410B20FEF7A1F80028A0
:105080007FF401AF9DE80A00CB1A594259410C2028
:10509000FEF796F8F7E6014685E700BF780900209D
:1050A000024B01221B605B609A6070474809002038
:1050B000704700BF0000000000000000000000007A
:1050C000024B00221B605B609A6070474809002019
:1050D000202383F3118862B672B683F3118862B617
:1050E000002383F3118862B6704700BF0000000000
:1050F00038B5FDF7D5FF01F06BFB154D00242023DB
:1051000083F3118813480121134A0023FCF760FD43
:1051100042F21071104A00231048FCF759FD0D4867
:10512000FCF716FD0D48FCF713FD002383F31188EF
:105130002B780134002BE2D00948FEF799F8600083
:10514000FEF7A6F8BDE838400648FEF771B800BF84
:10515000E8110020CC090020B1500008B809002057
:10516000A86A0008A0770008000000000000000006
:10517000F8B52649264B002201F110001B605B6048
:1051800014461861D960996159619A60DA611A62AE
:105190001746FDF785FF01F01BFB1E4E202585F30A
:1051A000118800211A48FCF7DBFA01211848FCF7A6
:1051B000D7FA02211648FCF7D3FA03211448FCF76A
:1051C000CFFA87F311884FF6FF711148FCF710FEF4
:1051D0004FF6FF710E48FCF70BFE4FF6FF710C48BF
:1051E000FCF706FE0A484FF6FF71FCF701FE337824
:1051F0000134002BD3D00848FEF73AF8A000FEF7A0
:1052000047F8BDE8F8400548FEF712B8180A002034
:10521000E0090020E8110020A86A0008AC77000827
:105220002DE9F041DFF8D08084B004AC002344F8CD
:10523000043DFDF735FFD8F818302A4F2A4E9A68FA
:1052400038463346013A00944FF4A471FCF7B0F9A4
:10525000D8F81830254D9A684FF4A4712860334669
:10526000013A009407F5A470FCF7A2F9D8F81830B9
:1052700068609A6807F524703346013A00944FF449
:10528000A471FCF795F9D8F81830A8609A6807F56A
:1052900076703346013A00944FF4A471FCF788F914
:1052A000D8F818304FF4A4719A68E860013A334690
:1052B00007F5A4600094FCF77BF928614FF4FA60CD
:1052C000FCF7BEFDFDF714FFFDF7FAFE0848FDF7F9
:1052D000CFFF0398FDF7DCFF0648FDF7A9FF04B0F8
:1052E000BDE8F081300A002071530008040A002054
:1052F000A86A0008B8770008981000200000000095
:10530000F0B5124B83B09B6900249D682746104E70
:105310000135FDF7C5FE01F05BFA0E4B00970E4814
:105320004FF4A4712A46FCF743F933780134002B7B
:10533000F3D00A48FDF79CFF2046FDF7A9FF084877
:1053400003B0BDE8F040FDF773BF00BF9810002028
:10535000E8110020515C0008300A0020A86A00080B
:10536000C4770008000000000000000000000000FA
:1053700038B50446084DFCF723F8FCF721F8FCF794
:105380001FF8FCF71DF82368AA6904332360537FD4
:105390005B07F0D538BD00BF98100020000000006A
:1053A00010B5064CA3695B7F5A0706D40448FCF786
:1053B00077F9A3695B7F5B07F8D510BD98100020D3
:1053C000480900200000000000000000000000006C
:1053D0002DE9F0433A4E83B0B36900249A684FF444
:1053E000A4710532374B38480094FCF7E1F8B369F3
:1053F000364D9A684FF4A47128600432314B009402
:105400003348FCF7D5F8B36968609A684FF4A47123
:1054100003322C4B2F480094FCF7CAF8B369A860FC
:105420009A684FF4A4710232264B2B480094FCF783
:10543000BFF8B369E8609A684FF4A4710132214B58
:1054400026480094FCF7B4F8A1462861FDF728FE31
:1054500001F0BEF9DFF898802027202687F3118815
:105460001F480021FCF71CFB0025FBF7E1FF89F337
:10547000118898F800300134002BEED0FDF738FE8B
:1054800086F3118816482946FCF70AFBFBF7D0FF84
:1054900085F31188FDF714FE1248FDF7E9FE20465A
:1054A000FDF7F6FE1048FDF7E3FE04EB4400400074
:1054B000FDF7EEFE0D4803B0BDE8F043FDF7B8BEC2
:1054C00098100020A1530008300A0020040A002090
:1054D000780B0020C00C0020080E0020500F002088
:1054E00048090020A86A0008D0770008B8770008AB
:1054F000E811002000000000000000000000000093
:10550000F0B5134B83B09B6900249D682746114E6C
:10551000013DFDF7C5FD01F05BF90F4B4FF4A471A0
:105520002A4600970D48FCF743F8FCF7E1F833787A
:105530000134002BF1D00A48FDF79AFE2046FDF712
:10554000A7FE084803B0BDE8F040FDF771BE00BFFC
:1055500098100020E8110020515C0008300A00205B
:10556000A86A0008C47700080000000000000000DE
:105570002DE9F047254B82B09B6900259A684FF4CE
:10558000A4710132224B23480095FCF711F8224BFD
:1055900004461860AA46FDF783FD01F019F9DFF80B
:1055A00084904FF02008202788F31188002120469E
:1055B000FBF766FF20460021FBF762FF2046002133
:1055C000FBF75EFF20460021FBF75AFF00268AF317
:1055D000118899F800300435002BE4D087F3118846
:1055E0004FF0FF312046FBF74BFF86F31188FDF7A4
:1055F00067FD0A48FDF73CFE6800FDF749FE0848D4
:1056000002B0BDE8F047FDF713BE00BF98100020C0
:1056100031560008300A0020040A0020A86A000859
:10562000B8770008E811002000000000000000002A
:10563000074A10B52023946983F311880320FBF7F0
:10564000F7FF236A002BF9D0002383F3118810BDE4
:105650009810002000000000000000000000000082
:1056600070B520260025FBF7FBFF046B86F311883D
:105670002146FBF705FF85F31188002CF3D170BD9F
:1056800070B50546FDF70CFD01F0A2F8074E0024A9
:1056900028460121FCF794F833780134002BF7D029
:1056A00028460021FCF78CF8204670BDE811002048
:1056B0002DE9F0412C4F2D4EBB6982B09A68002530
:1056C0003046013200954FF4A471294BFBF770FF6F
:1056D000BB69284C9A68DFF8AC8020604346023AE8
:1056E000009506F5A4704FF4A471FBF761FFBB6948
:1056F00060609A6806F524704346033A00954FF4BB
:10570000A471FBF755FFBB69A0609A6806F5767037
:105710004346043A00954FF4A471FBF749FFBB6977
:105720004FF4A4719A68E060053A434606F5A46018
:105730000095FBF73DFF20612068FFF7A1FF0446BD
:10574000FDF7BEFC0C48FDF793FD2046FDF7A0FDDC
:105750000A48FDF78DFD6000FDF79AFD084802B08C
:10576000BDE8F041FDF764BD98100020300A00202C
:1057700061560008040A0020A86A0008E4770008BF
:10578000B8770008515C000800000000000000002D
:1057900010B5134A82B09269002392684FF4A47145
:1057A000013200930F48104BFBF702FF0F4B1860BC
:1057B000FFF766FF0446FDF783FC0D48FDF758FD33
:1057C0002046FDF765FD0B48FDF752FD6000FDF733
:1057D0005FFD094802B0BDE81040FDF729BD00BFDC
:1057E00098100020300A002061560008040A0020AA
:1057F000A86A0008E4770008B877000800000000F5
:1058000010B5134A82B09269002392684FF4A471D4
:10581000013A00930F48104BFBF7CAFE0F4B18607C
:10582000FFF72EFF0446FDF74BFC0D48FDF720FD6A
:105830002046FDF72DFD0B48FDF71AFD6000FDF732
:1058400027FD094802B0BDE81040FDF7F1BC00BFDC
:1058500098100020300A002061560008040A002039
:10586000A86A0008E4770008B87700080000000084
:1058700038B5202484F311880120FCF711FB0023A4
:1058800083F3118880F00101C9B20120FDF798FC73
:10589000054600B138BD84F311880220FCF700FBF7
:1058A00085F3118880F00101C9B20220FDF788FC60
:1058B00005460028EED184F311880420FCF7F0FAA5
:1058C00085F3118880F00101C9B20320FDF778FC4F
:1058D00005460028DED184F311880820FCF7E0FAA1
:1058E00085F31188BDE8384080F00101C9B2042079
:1058F000FDF766BC00000000000000000000000092
:1059000010B586B0EFF311831BB9FCF7B9FAFCF7B9
:10591000A7FA202383F31188EFF311831BB9FCF757
:10592000AFFAFCF79DFA002383F31188EFF311839C
:1059300013B9202383F31188EFF3118313B92023C4
:1059400083F31188002383F31188202282F31188C6
:10595000EFF311820AB183F31188EFF3118313B1CE
:10596000002383F3118800230493202383F31188F9
:10597000049B01AC13B12046FCF7EAF82046012154
:105980000B4A0023FCF724F9002484F311880A2031
:10599000FCF756FA202383F31188049984F31188C5
:1059A000B1FA81F101204909FDF70AFC06B010BDEA
:1059B000C1590008000000000000000000000000C5
:1059C00008B5202383F31188002282F3118883F322
:1059D0001188EFF311831BB9FCF752FAFCF740FA78
:1059E000002383F3118808BD0000000000000000C0
:1059F000024800214FF4C872FCF78AB974080020ED
:105A00002DE9F043202383B083F31188864B596935
:105A10009A6991425DD000210120FDF7D1FBB8BB0E
:105A200080F311884124804D2146013428464FF6E9
:105A3000FF72E4B2FCF76CF9452CF4D1202686F312
:105A40001188A9680220B1FA81F14909FDF7B8FB74
:105A50000746E8B980F31188814604244FF02008F6
:105A600086F31188704D2846FDF73AFF89F31188B7
:105A7000C0B2FDF7BDFB013CF0D188F311886A6923
:105A8000AB699A422AD039460320FDF799FB28B129
:105A9000002383F3118803B0BDE8F08380F31188FD
:105AA00004206249FDF764FB04460028F3D1202658
:105AB00086F311885C4D2846FDF712FF033014BFB2
:105AC000002101210520FDF77BFB60B184F31188E3
:105AD000E1E79968003118BF01219DE7AF68003701
