:020000040800F2
:100000000004002061010008111500081115000806
:100010001115000811150008111500081115000828
:100020001115000811150008111500082104000819
:100030001115000811150008111500081115000808
:1000400011150008111500081115000811150008F8
:1000500011150008111500081115000811150008E8
:100060001115000811150008111500086125000878
:100070003125000801250008D1240008A12400082A
:1000800071240008412400081115000821280008E7
:10009000B127000841270008912500081115000824
:1000A0001115000811150008111500081115000898
:1000B000A1230008111500081115000811150008EA
:1000C0001115000811150008111500081115000878
:1000D00011150008F1250008111500081115000878
:1000E0001115000811150008111500081115000858
:1000F0001115000811150008111500081115000848
:100100001115000811150008111500081115000837
:100110001115000811150008111500081115000827
:100120001115000811150008111500081115000817
:100130001115000811150008111500081115000807
:1001400011150008111500081115000811150008F7
:1001500011150008111500081115000811150008E7
:1001600072B6224880F30988022080F31488BFF316
:100170006F8F01F00DFA02F003FF1D481D491E4A62
:1001800091423CBF41F8040BFAE71C49174A9142DF
:100190003CBF41F8040BFAE719491A4A1A4B9A4234
:1001A0003EBF51F8040B42F8040BF8E70020174952
:1001B000174A91423CBF41F8040BFAE701F0B0F94D
:1001C00001F0DEF9134C144DAC4203DA54F8041B71
:1001D0008847F9E704F0C4FD104C114DAC4203DA36
:1001E00054F8041B8847F9E701F0C2B90008002061
:1001F0005555555500000020000400200004002043
:10020000C081000800080020DC080020E008002071
:100210007C180020600100086001000860010008EF
:100220006001000800000000000000000000000065
:100230002DE9F04FC1F80CD0C3689D46BDE8F08FA2
:10024000002383F311882846A047002000F0F8FE21
:1002500000F02EFA00DFFEE70000000000000000C2
:1002600080EA010C1CF0030F37D110F0030C20F0D2
:10027000030021F0030150F8042B08BF51F8043BA0
:100280000ED08CF0030C6FF07F434FEACC0C23FAB6
:100290000CFC51F8043B42EA0C0243EA0C0300BF99
:1002A000A2F1013C9A4201BF2CEA020C1CF0803FF3
:1002B00050F8042B51F8043BF2D04FEA02604FEAA9
:1002C0001222012828BFB0EB036F08BF1B0AF4D02D
:1002D00003F0FF03000EC01A704710F0030F0AD09E
:1002E00010F8012B11F8013B012A28BF9A42F4D0E3
:1002F000A2EB030070474DF8045D50F8042B01F0A9
:10030000030521F0030151F8043B022D26D04DD8FE
:1003100022F07F45B5EB132FA2F1013C2CEA020C31
:100320000DD11CF0803C08BF51F8043B0AD185EA8E
:100330000205B5EB036F0CD150F8042BE8E74FEA48
:1003400013235BE03CF07F4C54D10B784FEA1265ED
:1003500054E04FEA126503F0FF034FE04FEA024515
:10036000A2F1013C4FEA15452CEA020CB5EB134F04
:1003700018D11CF0803C08BF51F8043B07D185EA36
:100380000205B5EB034F09D150F8042BE6E75FEA0D
:100390000C4C2FD10B884FEA12452FE04FEA034354
:1003A0004FEA12454FEA134328E000BF02F0FF0571
:1003B000B5EB136FA2F1013C2CEA020C0DD11CF03D
:1003C000803C08BF51F8043B0AD185EA0205B5EB31
:1003D000032F0AD150F8042BE8E74FEA13630DE02E
:1003E00012F0FF0F06D051F8043B4FEA122523F01C
:1003F0007F4303E04FF0000020BC704705F0FF0290
:1004000003F0FF00012828BF904204BF2D0A1B0AF9
:10041000F4D0A2EB000020BC704700BF0000000039
:10042000EFF30983203383F30988002383F31188D2
:10043000704700BF00000000000000000000000046
:1004400010B4202383F31188094C0A4B22681968E1
:10045000C31D23F00703891A8B429DBF9B1823609D
:1004600010460020002383F311885DF8044B704789
:10047000B8130020BC1300200000000000000000A2
:1004800010B4202383F31188037F072B0ED8DFE8F5
:1004900003F0270D0D2308040D08026A9368013349
:1004A000936090E80C001A60026853604FF0FF34CC
:1004B000002281680D4B046202771B689A688A42A9
:1004C000FBD25A680021036042601060586081F3DB
:1004D00011885DF8044B7047036A00221A60E5E753
:1004E000002383F311885DF8044B7047F813002054
:1004F000FEE700BF00000000000000000000000058
:100500000D4AF0B410689469056801270026A168B7
:100510002B466A60156007779061267700E01B68BC
:100520009A688A42FBD85A68214623606260146048
:100530005C60F0BCFFF77CBEF813002000000000F8
:10054000202383F311880F4B5B6813F4006302D1FF
:1005500083F311887047EFF309834FF0807243F8FB
:10056000042CA3F1200282F30988074A11689269DA
:100570008968926891428CBF044A054A43F8082C66
:10058000704700BF00ED00E0F813002051020008A2
:1005900054020008000000000000000000000000FD
:1005A00008B52022034682F31188006828B102684A
:1005B0001A60002383F3118808BD9A68002AF8D0D6
:1005C00058689047002383F3118808BD000000009D
:1005D000202383F31188024602E08B4207D01A469B
:1005E00013688342F9D1002383F3118870470B68A5
:1005F0001360002383F31188704700BF00000000E0
:100600000E4B0F495A688368096FD31AC26830B419
:10061000D0E904455B1A01324168E418C2600268FF
:1006200045F100058B4288BF43609342C0E9044511
:1006300030BC836038BF0360704700BF001000E02B
:10064000F81300200000000000000000000000007F
:10065000F8B5202383F31188124A106894698368DF
:10066000A1688B4203D2002383F31188F8BD05688B
:10067000012700266A602B46077715609061267770
:1006800000E01B689A689142FBD95A6821462360B2
:10069000626014605C60FFF7CBFD002383F3118878
:1006A000F8BD00BFF81300200000000000000000AB
:1006B000FFF726BF0000000000000000000000005F
:1006C000044B1A689B6992689B689A4200D87047ED
:1006D000FFF716BFF8130020000000000000000024
:1006E00010B5202383F31188084B9B69DC6B996854
:1006F0008C4201D0814200D29860D863FFF7E0FFBE
:10070000002383F31188204610BD00BFF81300209A
:10071000144B70B49E69846805460162B0688442D7
:100720000CD800222A771B689A689442FBD95A6831
:100730002B606A6015605D6070BC70471A460021CE
:100740003177126891688842FBD950680124706043
:100750003260066056602C77314628469D6170BC39
:10076000FFF766BDF8130020000000000000000045
:1007700008B5202383F3118883680133002B83603D
:1007800003DD002383F3118808BD034600680021C0
:1007900002681A605360FFF7BBFF002383F31188E0
:1007A00008BD00BF000000000000000000000000C5
:1007B0002DE9F04799460446202383F31188194E0A
:1007C000243947187369DFF860A0C76040F80190CA
:1007D0000899002500F128094FF0010C00F1240EC2
:1007E0004FF002087960C7F820A0294682600661B0
:1007F0004361C26380F81C8080F81EC04577856322
:10080000456385611861C0F824E0C0F82890C0F8FD
:100810002C907061FFF77CFF85F311882046BDE8BE
:10082000F08700BFF813002041020008000000001C
:10083000074B30B41A68996914680125087763601A
:1008400015771C60104630BC9A61FFF7F1BC00BF01
:10085000F81300200000000000000000000000006D
:1008600010B5202383F311880B4CA269134653F86B
:10087000280F984208D001680D2491624B60002235
:10088000047782F3118810BD0E20FFF7D1FFA26913
:10089000906A02F12803EEE7F81300200000000040
:1008A000202383F311888368013B002B836004DBE2
:1008B0000020002383F311887047034610B5084CCD
:1008C0000520A26913625968136051600A605A607A
:1008D000FFF7AEFFA369186A002383F3118810BDE8
:1008E000F8130020000000000000000000000000DD
:1008F00010B4044600228168074B02771B689A688F
:100900008A42FBD25A6820462360626014605C60B1
:100910005DF8044B704700BFF81300200000000092
:1009200042690346806910B582421DD09868541C04
:1009300001305C619860117059691A6991420CD25A
:100940001A6893420ED011680024196010464B605B
:100950001462FFF7CDFF204610BDDA685A611A68AD
:100960009342F0D1002010BD98680028DED06FF0CF
:10097000030010BD000000000000000000000000A7
:1009800038B5426983699A4219D082680569591C51
:10099000013282608161A9421C780DD202689042C6
:1009A00008D003461168002501604B6010461562AF
:1009B000FFF79EFF204638BDC3688361EEE782687B
:1009C000002AE2D06FF0020038BD00BF0000000036
:1009D0000E4B70B520229C6982F3118800F1280526
:1009E000067F2562C26A0E2E216325606260146054
:1009F000C46207D00C20FFF71BFF206A002383F39B
:100A0000118870BDFFF774FFF4E700BFF8130020F2
:100A1000436B027F19430A2A41630AD00B2A00D094
:100A20007047036A19408B42FAD100230362FFF733
:100A30005FBF036A1942F8D1704700BF0000000091
:100A400070B504680646A0420D460DD0E3682B43FE
:100A5000E36015B12269134203D06068A168FFF713
:100A6000D7FF2468A642F1D170BD00BF000000008E
:100A7000134A70B52023946983F31188A36BD3B113
:100A800000260BE0956B1168104619604B609A6068
:100A9000DD609363FFF72CFFA36B43B11A68D9683D
:100AA0009342A163EED19E60A36B002BF6D1E36B62
:100AB000A360FFF705FE002383F3118870BD00BF1C
:100AC000F8130020000000000000000000000000FB
:100AD00030B40446114A2568C3689069AC42836308
:100AE00017D0C16B4BB11A68934203D09268914200
:100AF00038BF1146DB68002BF5D1AA6B2B688160EB
:100B0000236028465C60A560E260AC6330BCFFF700
:100B1000EFBE0023A36030BC704700BFF813002075
:100B2000174B70B59D69202383F311880468C3684F
:100B3000A042AB631DD0E96B4BB11A68934203D05E
:100B40009268914238BF1146DB68002BF5D103460D
:100B50002268A66B2046A9601A6053609C60DE6024
:100B6000A363FFF7C5FEFFF7ABFD002383F31188F6
:100B700070BD00238360002383F3118870BD00BF24
:100B8000F81300200000000000000000000000003A
:100B9000F8B582682F4B9C69002A55D0A1689368EC
:100BA0000546994206D9137F9160062B33D0072B57
:100BB0001DD09BB12B4603E09968A268914202D3F5
:100BC0001B689D42F8D15A682360626014605C60C3
:100BD00025620620BDE8F840FFF72ABE92E80A0029
:100BE0001960104612685360FFF782FEE2E717684B
:100BF0005068166A076017683346786002E09868A4
:100C0000884202D31B689E42F9D159681360516033
:100C10000A605A60CEE717685068166A076017685E
:100C20003346786002E09868884202D31B689E428F
:100C3000F9D15968136051600A605A60B268A168BE
:100C400093688B42AFD3B5E7A36B8460C360A063A6
:100C5000F8BD00BFF81300200000000000000000F5
:100C600008B5202383F31188FFF792FF002383F355
:100C7000118808BD00000000000000000000000016
:100C800070B50F4C0E46002818BF044604F110053D
:100C90002846FFF7E5FFA36873B1002214465868A1
:100CA0001B6801340244002BF9D106B1326028469A
:100CB000FFF736FF204670BD1A461C46F5E700BF19
:100CC000F809002000000000000000000000000003
:100CD000F8B550F8085C064605F11007A0F10804C5
:100CE00008353846FFF7BCFF2B46AB4204D0A34281
:100CF00002D31B68AB42FAD11A681AB1944201D3ED
:100D00001346F2E756F8041C46F8082C1C6001F163
:100D1000080256F8085CA018A8420AD0596801F1E8
:100D200008021A44944210D03846BDE8F840FFF754
:100D3000F7BE4568A0584A19083206E90500596807
:100D400001F108021A449442EED116E905000A4462
:100D5000083283E805003846BDE8F840FFF7E0BEFA
:100D60000246202181F31188837F013BDBB2837728
:100D70004BB910B4047F0F2C09D0002383F31188E2
:100D80005DF8044B7047002383F311887047447F5C
:100D900004F00304012C11D0022CEED11469406937
:100DA00004611469606183F31188106C81F3118808
:100DB00001681160026083F31188E1E74169046909
:100DC0000C610269516183F311885DF8044BFFF7F0
:100DD0007FBF00BF00000000000000000000000016
:100DE00010B5202383F31188074B04699C4217BF79
:100DF000A37F00240133A377002383F31188FFF737
:100E0000AFFF204610BD00BFF81300200000000017
:100E100038B50446202383F31188037F0F2B07D0B6
:100E2000084B426A9B6909201A606362FFF700FD64
:100E3000256A002383F311882046FFF791FF284697
:100E400038BD00BFF81300200000000000000000C3
:100E5000F8B5214E0731002818BF064606F11007E5
:100E6000384621F0070506F10804FFF7F9FE03E014
:100E700043689D4212D9044620680028F8D13846BC
:100E8000FFF74EFE336823B305F10800984700B31F
:100E90000660456000F108042046F8BD05F1080130
:100EA000994209D9036823600446384644F8086B20
:100EB000FFF736FE2046F8BD6FF0070EC5EB0E0EAD
:100EC0009E44036842184350C2F804E02260456023
:100ED000EAE70024E0E700BFF80900200000000076
:100EE0002DE9F84F904699460D46FFF7B1FF0446AD
:100EF000002834D0202383F311881A4FA5F1240150
:100F00000A9A00EB010C7B69C0F80CC040F8019014
:100F1000CCF804204FF00102DFF84CB0002500F1BE
:100F2000280600F1240E4FF0020ACCF820B0294622
:100F3000C0F8088007614361C0F83C8080F81CA0BD
:100F400085634563856182771861C4F824E0627720
:100F50008662C6627861FFF7DBFB85F31188204665
:100F6000BDE8F88FF81300204102000800000000DF
:100F7000836802460133002B836000DD70470368FD
:100F800010B41968002411604A601C6218465DF8AC
:100F9000044BFFF7ADBC00BF0000000000000000E4
:100FA00070B5856881600135002D0CDC04466FF05A
:100FB000010660680135436863601C60FFF798FCB8
:100FC000012D0662F5D170BD000000000000000098
:100FD00038B50368044698420D4609D01A68184689
:100FE000226054601D62FFF783FC23689C42F5D1A8
:100FF00038BD00BF0000000000000000000000003D
:1010000038B50E4B9C69636A04F124059D42206249
:1010100007D01A6818466262FFF76AFC636AAB423F
:10102000F7D1637F9B0704D1226963691A61226942
:1010300053610F20BDE83840FFF7FABBF8130020DA
:10104000202383F31188FFF7DBBF00BF00000000FF
:101050001C4B70B4DA6982420FD0026841681C33BD
:101060000A60026800249A425160C46003D001897A
:1010700013890B44138170BC704719461568002012
:1010800041F81C5F8D426960D06016D04FF08040FF
:10109000416A1689DC8C2A8989B2B3180A1B9BB273
:1010A00092B293422B81E6D99B1A9BB2012B98BF37
:1010B00002230B449BB24363DDE74FF08043D860CB
:1010C000D9E700BFF8130020000000000000000076
:1010D000F0B51E4E4FF08047B6465EF81C4F7D6A55
:1010E000012998BF022174450361C260ABB21DD0D3
:1010F0001944F38C89B22289CB1A9BB2934238BF30
:101100007963934205D924689B1A22899BB29A423B
:10111000F9D34FF6FF71626804604260106060604E
:1011200003812289D31A2381B184F0BDCA1892B2F7
:101130004FF0000E0225F384F061306204604460D9
:1011400001817A63C7F810E0FD60F0BDF81300205C
:101150004FF6FF7330B5994287B012D005460C4C5C
:1011600001A8A3690B4AFFF7B3FF2846FFF760FB0E
:10117000049B13B101A8FFF76BFFA369186A07B0BE
:1011800030BDFFF755FB024CA369186A07B030BDAC
:10119000F813002081040008000000000000000097
:1011A00003468068421E002A9A6001DB00207047D7
:1011B00010B461B1094A0520926913625C6882E843
:1011C000180022605A605DF8044BFFF7C1BF9860B9
:1011D0005DF8044B4FF0FF30704700BFF81300205C
:1011E00069B10246074B10B49B694468042083E848
:1011F0001400236053605DF8044BFFF7A9BF4FF064
:10120000FF307047F81300200000000000000000CD
:101210002DE9F04F83B004468B4615460193C7690C
:101220004FF0200888F311880026B146A3680BF11F
:10123000010AFBB16269A368501C013B6061A360B5
:101240009BF800301370236962699A4224BFE368F7
:1012500063610FB12046B84789F31188013D06F15B
:10126000010611D088F31188D346A3680BF1010A57
:10127000002BDFD1204601990093FFF7B1FF009BBF
:101280000028D3D083F31188304603B0BDE8F08F37
:10129000F8B504460F461646202383F3118805E06F
:1012A00020463146FFF79CFF002817DBA568002D7C
:1012B000F6D06269A368511C013B6161A36017709D
:1012C000236962699A4224BFE3686361E3690BB1F1
:1012D00020469847002080F31188F8BD85F31188D7
:1012E000F8BD00BF0000000000000000000000008A
:1012F0002DE9F04F044683B0894693461D46D0F849
:101300001C80202787F311880026B2460197B8F188
:10131000000F07D02046C04704E020462946FFF7CB
:101320005FFFD0B9A768002FF7D0A269A368511C4E
:10133000013BA161A360137809F8013B2369A2690D
:101340009A4224BFE368A3618AF311880136B3454A
:1013500005D0019B83F31188D9E787F311883046C4
:1013600003B0BDE8F08F00BF0000000000000000E7
:1013700070B520230E46044683F31188C3693BB140
:10138000984705E020463146FFF72AFF002813DB87
:10139000A568002DF6D0A169A36825694A1C013B08
:1013A000AA42A36028BFE368A261087828BFA361AE
:1013B000002383F3118870BD85F3118870BD00BFD1
:1013C00008B5202383F311884FF08043596A411AEE
:1013D00089B211B10820FFF7BBFE002383F3118807
:1013E00008BD00BF00000000000000000000000079
:1013F00008B50146202383F311880820FFF7A8FED3
:10140000002383F3118808BD0000000000000000E5
:1014100010B5EFF30584C4F308041CB1002383F373
:10142000118810BDFFF74CF984F3118810BD00BF7F
:10143000EFF30583C3F308031BB9202383F311885B
:101440007047202383F31188704700BF000000001D
:10145000C20710B410D52A4A116891423ED0002329
:10146000096801339142FBD14C688C4232D06468E8
:10147000013B9442FBD16BBB830712D5204A144633
:1014800054F81C1FA1422FD0002309680133A14248
:10149000FBD1126A8A421DD05268013BA242FBD1A5
:1014A000C3B910F0040012D0154A1369934221D039
:1014B00000201B6901309342FBD15969994209D040
:1014C000496901389142FBD1003018BF01205DF815
:1014D000044B704701205DF8044B704754689442F8
:1014E00018BF0023C3D1C7E7126AA24218BF002366
:1014F000D2D1D6E7596900209942E1D1E7E700BF90
:10150000F8130020000000000000000000000000B0
:10151000FEE700BF00000000000000000000000027
:10152000F0B4114E002506F1800796E81A00A34298
:101530000DD21A46043951F8040F42F8040BA242A6
:10154000F9D3DA43144424F0030404342344F26846
:10155000934203D243F8045B9342FBD31036BE425E
:10156000E3D3F0BC704700BF506F000800000000DC
:10157000FEE700BF000000000000000000000000C7
:10158000704700BF000000000000000000000000E5
:10159000704700BF000000000000000000000000D5
:1015A000024B00221B605B609A60704700080020BD
:1015B000044A054B002112605260916099601B60E3
:1015C0005B60704700080020100800200000000049
:1015D000024B00221B605B609A607047000800208D
:1015E000024B00221B605B609A607047A0080020DD
:1015F000024B00221B605B609A607047A0080020CD
:10160000024B00221B605B609A607047A0080020BC
:101610002DE9F041844D854BAA6982B094684FF45E
:10162000A471671C3A4600938148824BFFF7C0F8CB
:10163000814E824B04F1020830604FF4A47142469F
:1016400000937F487F4BFFF7B3F870607E48FFF749
:1016500007FBAB6901209968611AB1FA81F1490968
:1016600001F06EFA10B102B0BDE8F081C820FFF7BA
:10167000BFFEAB6902209968791AB1FA81F1490974
:1016800001F05EFA0028EED17048FFF7E9FAAB6985
:1016900003209968791AB1FA81F1490901F050FAE9
:1016A0000028E0D1C820FFF7A3FEAB6904209968A9
:1016B000C1EB0801B1FA81F1490901F041FA0028B2
:1016C000D1D16248FFF72CFAAB6905209968791AE5
:1016D000B1FA81F1490901F033FA0028C3D1C820D9
:1016E000FFF786FEAB6906209968791AB1FA81F195
:1016F000490901F025FA0028B5D1FFF7B9F9AB691E
:1017000007209968611AB1FA81F1490901F018FAC4
:101710000028A8D101F094F94D4B4FF4A471009327
:101720003A46444B4248FFF743F84A4B30604FF487
:10173000A47100934246434B4148FFF739F870606B
:101740004148FFF78DFAAB6908209968611AB1FA30
:1017500081F1490901F0F4F9002884D1C820FFF78C
:1017600047FEAB69092099687B1A5942594101F03B
:10177000E7F900287FF477AF3448FFF771FAAB69D7
:101780000A209968C1EB070CDCF1000141EB0C0168
:1017900001F0D6F900287FF466AFC820FFF728FED5
:1017A000AB690B209968C1EB080EDEF1000141EB3B
:1017B0000E0101F0C5F9064600287FF454AF20233E
:1017C00083F311882148FFF783F9FEF779FF86F349
:1017D0001188AB690C2099687E1A7142714101F041
:1017E000AFF900287FF43FAFC820FFF701FEAB69D7
:1017F0000D2099687A1A5142514101F0A1F900284F
:101800007FF431AFFFF734F9AB690E209968631AA2
:101810005942594101F094F900287FF424AF02B0F5
:10182000BDE8F04101F00CB9F8130020D06F0008BA
:10183000500D00206118000868090020D46F0008CE
:10184000980E0020811800081008002000080020D1
:10185000F8800008D86F00080000000000000000B9
:1018600010B5064C6420FFF7C3FD2046FFF7F8F9DA
:101870002046BDE81040FFF753B900BF1008002014
:1018800010B5064C4FF49670FFF7B2FD2046FFF7F7
:10189000E7F92046BDE81040FFF742B900080020F4
:1018A00070B5294E82B0B36928489C68FFF7D8F913
:1018B000274B621C00934FF4A471264B2648FEF779
:1018C00077FF264D264B2860A21C00934FF4A4718D
:1018D000204B2448FEF76CFF234B6860E21C00930A
:1018E0004FF4A4711B4B2148FEF762FF204BA86008
:1018F000221D00934FF4A471164B1E48FEF758FFAB
:101900001D4B4FF4A471621DE86000931B48114BFE
:10191000FEF74EFF28610D48FFF702F901F090F83D
:10192000B36901209968611AB1FA81F1490901F09E
:1019300007F908B102B070BD1149022002B0BDE83C
:10194000704001F0D5B800BFF81300200008002057
:10195000E06F0008611A0008500D0020680900209F
:10196000F8800008980E0020D86F0008E00F0020D3
:10197000D06F000828110020D46F000870120020DA
:10198000DC6F000800000000000000000000000004
:10199000F0B5274F274EBB69274D9A68274983B07A
:1019A0002B460091053A30464FF4A471FEF700FF34
:1019B000BB69234C9A68234920602B460091043A66
:1019C00006F5A4704FF4A471FEF7F2FEBB691E4940
:1019D0009A6860602B460091033A06F524704FF434
:1019E000A471FEF7E5FEBB6918499A68A0602B4612
:1019F0000091023A06F576704FF4A471FEF7D8FE16
:101A0000BB6913499A68E060013A2B46009106F5DC
:101A1000A4604FF4A471FEF7CBFE206101F010F832
:101A20000C49012003B0BDE8F04001F061B800BFEF
:101A3000F8130020500D0020811A0008E06F000804
:101A400068090020F8800008D86F0008D06F0008EF
:101A5000D46F0008DC6F00080000000000000000E8
:101A600038B50546054C2046FFF7FAF8287801F00E
:101A70007FF82046BDE83840FFF752B80008002044
:101A8000007801F075B800BF000000000000000001
:101A900010B504460348FEF703FF2078BDE8104068
:101AA00001F066B8A008002000000000000000005F
:101AB00008B5202282F311888368002B05DDFEF72C
:101AC000FFFD002383F3118808BDFFF751FAFEF7ED
:101AD000F7FD002383F3118808BD00BF000000005C
:101AE00008B56420FFF784FC202383F311880448A1
:101AF000FFF73EFAFEF7E4FD002383F3118808BDEB
:101B0000A00800200000000000000000000000000D
:101B1000F0B587B003AD0024039504950594202605
:101B200086F3118828462146FFF73AFAFEF7C8FDEA
:101B300084F3118886F3118805990120A142CCBF56
:101B40000021012100F0FCFF074618B184F3118841
:101B500007B0F0BD80F311883F4B4FF4A4719B692F
:101B60003E489A683E4B013A0095FEF721FE3D4BF8
:101B700018602846FEF794FE86F311880599022026
:101B80000029CCBF0021012100F0DAFF18B187F352
:101B9000118807B0F0BD80F3118886F31188059B8A
:101BA000002B23DDFEF78CFD002484F31188202711
:101BB00087F3118805990320A142D4BF0021012198
:101BC00000F0BEFF06460028C0D180F3118887F3DD
:101BD000118805990420A1F10101B1FA81F14909A7
:101BE00000F0AEFF30B186F31188B1E72846FFF769
:101BF000BFF9D7E780F3118887F31188059B002B85
:101C000023DDFEF75DFD002484F31188202686F392
:101C1000118805990320A142D4BF0021012100F0C1
:101C20008FFF0546002891D180F3118886F3118833
:101C300005990520A1F10101B1FA81F1490900F0EE
:101C40007FFF30B185F3118882E72846FFF790F9CE
:101C5000D7E780F311887BE7F8130020500D0020B0
:101C6000B11A000868090020000000000000000010
:101C700010B51E4A82B09269002392684FF4A47195
:101C8000013200931A481B4BFEF792FD1A4C1B4B76
:101C9000186004F0E5FE21680120091BB1FA81F10A
:101CA000490900F04DFF08B102B010BDA168022043
:101CB000B1FA81F1490900F043FF0028F4D104F0A2
:101CC000CFFE21680320091BB1FA81F1490900F018
:101CD00037FF0028E8D1A1680420B1FA81F1490951
:101CE00002B0BDE8104000F02BBF00BFF813002089
:101CF000500D0020011D0008A008002068090020E8
:101D000010B5044C2046FEF7CBFD2046BDE8104040
:101D1000FEF72EBDA008002000000000000000001B
:101D2000F0B5202583B085F31188554C002120465D
:101D3000FFF736FA0023014683F31188A1F1FF3142
:101D4000B1FA81F10120490900F0FAFE08B103B0AF
:101D5000F0BD21680220091BB1FA81F1490900F0A8
:101D6000EFFE0028F3D1A1680320B1FA81F14909FF
:101D700000F0E6FE06460028E9D1424B4FF4A4717C
:101D80009B6941489A68414B013A0096FEF710FD65
:101D90003F4B186085F311884FF47A712046FFF7A6
:101DA000FFF9074686F3118800F04AFEB7FA87F17B
:101DB0000420490900F0C4FE0028C8D1216805208C
:101DC000091BB1FA81F1490900F0BAFE0028BED121
:101DD000A1680620B1FA81F1490900F0B1FE06467A
:101DE0000028B4D100F01CFE85F311884FF0804329
:101DF0005F6A86F311884126304600F0B9FE85F30C
:101E0000118864211E48FFF7CBF90023014683F3B4
:101E10001188A1F1FF31B1FA81F10720490900F0E1
:101E20008FFE002893D121680820091BB1FA81F1A7
:101E3000490900F085FE002889D1A1680920B1FA7E
:101E400081F1490900F07CFE0136F6B200287FF4EA
:101E50007EAF462ED0D10A200E4900F049FE002860
:101E60007FF475AFBFB207F5FA7107F5FC7289B25E
:101E700092B20B2003B0BDE8F04000F011BE00BFED
:101E8000A0080020F8130020500D0020E11A0008DF
:101E900068090020DC6F000800000000000000005E
:101EA000F0B54B4D4B4FAB6983B09A684FF4A471BA
:101EB0000532494B49480097FEF77AFCAB69484C1C
:101EC0009A68484B2060013200934FF4A471424B52
:101ED0004548FEF76DFCAA69444B92684FF4A47123
:101EE00060600332009342483B4BFEF761FCAA69F5
:101EF000404B92684FF4A471A060043200933E48B6
:101F0000354BFEF755FCAA693C4B92684FF4A4711F
:101F10000232E06000933A482F4BFEF749FC206103
:101F20003848FEF725FC3748FEF722FC3548FEF717
:101F30001FFC3448FEF71CFC3248FEF719FC00F089
:101F40007FFD0120304900F0D3FD064608B103B003
:101F5000F0BDAB694FF4A4719A6820480532009730
:101F60001D4BFEF725FC2023206083F31188254CB0
:101F70000225274602E0012D0ED00125A36801337A
:101F8000002BA360F7DC386803685F603B60FEF7F6
:101F9000AFFC012D0662F0D1FEF792FB002585F320
:101FA000118800F04DFD202383F31188A1680220E1
:101FB000A1F10101B1FA81F1490900F0C1FD18B99F
:101FC00080F3118803B0F0BD85F3118803B0F0BD34
:101FD000F8130020D46F0008911A0008500D00205B
:101FE00068090020D06F0008980E0020D86F000804
:101FF000E00F0020F880000828110020E06F0008A2
:1020000070120020A0080020DC6F00080000000013
:102010002DE9F04F474E484DB369DFF834919A6887
:10202000464983B04B460091043A28464FF4A471C8
:10203000FEF7BEFBB369DFF81C819A684049A5F53D
:10204000A474C8F804004B460091053A20464FF4AA
:10205000A471FEF7ADFBB3693A499A68C8F800006D
:102060004B460091013A05F576704FF4A471FEF7E6
:102070009FFBB36934499A68C8F810000091023A8E
:1020800005F524704B464FF4A471FEF791FB202216
:10209000C8F80C0082F31188B36971699B68DFF896
:1020A000B8C0A3F1030ADFF8B4E005F5A473002774
:1020B00005F51B7BC4F898A2C4F8CCA2C4F8B4936D
:1020C000022005F5B6794FF0010A05F5B875C4F898
:1020D000A062C4F89CB2C4F8B8C3C4F8D4E384F8CE
:1020E000AC02C4F8A41284F8AD72C4F8C872C4F883
:1020F000C472C4F8A87284F8AEA20B617361C8F808
:102100000830C4F8B492C4F8B852C4F8BC5287F38B
:102110001188D8F8080082F31188FEF7E9FB87F3ED
:10212000118800F08DFC5046084903B0BDE8F04F1F
:1021300000F0DEBCF8130020980E0020F8800008A4
:10214000E06F0008D46F0008D06F0008DC6F000853
:10215000811A000868090020D86F000841020008B1
:1021600070B500F05DFC202686F311884FF08045A5
:102170006C6A0023A4B283F31188C820FFF738F9F2
:1021800004F1C80104F1CB0289B292B2012000F03F
:1021900087FC00B170BD86F311886C6AA4B280F32D
:1021A0001188C820FFF724F904F1C80104F1CB021B
:1021B00089B292B2022000F073FC0028EAD186F3C3
:1021C00011886C6AA4B280F311884FF4FA60FFF7AB
:1021D0000FF904F5FA6104F2D37289B292B20320C6
:1021E00000F05EFC0028D5D186F311886C6AA4B299
:1021F00080F3118804F1C805ADB22846FFF7E0F876
:1022000004F1CB022946BDE8704092B2042000F0F0
:1022100047BC00BF000000000000000000000000FC
:10222000F8B5494EB3699C68651C2846FEF758FA14
:102230000746391BB1FA81F10120490900F080FC01
:1022400000B1F8BDB36902209968691AB1FA81F149
:10225000490900F075FC0028F3D13846FEF740FA32
:10226000291AB1FA81F10320490900F069FC00281C
:10227000E7D1B36904209968611AB1FA81F149097B
:1022800000F05EFC0028DCD1202383F31188B269C2
:1022900093680233936080F31188B369A71C99682F
:1022A0000520791AB1FA81F1490900F049FC0028AA
:1022B000C7D12846FEF714FA011BB1FA81F10620B6
:1022C000490900F03DFC0028BBD1B369072099689B
:1022D000791AB1FA81F1490900F032FC0028B0D135
:1022E000B3690820D96B691AB1FA81F1490900F084
:1022F00027FC0028A5D1E71C3846FEF7F1F9281A7B
:1023000041424141092000F01BFC002899D1B369EA
:102310000A2099687A1A5142514100F011FC0028B4
:102320008FD1B3690B20D96B7B1A5942594100F008
:1023300007FC002885D1202383F31188B3699C60B2
:10234000DC6380F311887CE7F813002000000000B4
:1023500070B5094E4C2430682D210368064D9B68EA
:102360009847013CF7D128680449036802221B689A
:10237000BDE87040184700BFE8080020A07F0008B3
:10238000014B01221A707047481500200000000020
:10239000024AD36843F08003D3607047003801409D
:1023A0002DE9F0414FF0804423699B0703D4BDE839
:1023B000F041FEF7C5B800272761202585F3118875
:1023C0001E4E626AB6F826E0F36990B2CEEB0001C9
:1023D0001A8989B2914206F11C081BD3196872440C
:1023E0004145F284DA68C1F80480F161DF6008BF1A
:1023F000E76087F311881869904785F31188626A4E
:10240000B6F826E0F36990B2CEEB00011A8989B2E2
:102410008A42E3D943450AD07244121A92B2012A81
:1024200098BF0222024492B24FF080435A630023C5
:1024300083F31188BDE8F041FEF782B8F81300205D
:10244000094B1968C1F3036159B1084810B5046B11
:102450000A065A600CB1406BA047BDE81040FEF779
:102460006FB8FEF76DB800BF000002408C09002075
:10247000094B1968C1F3035159B1084810B5846A72
:102480000A055A600CB1C06AA047BDE81040FEF7CB
:1024900057B8FEF755B800BF000002408C09002075
:1024A000094B1968C1F3034159B1084810B5046AD2
:1024B0000A045A600CB1406AA047BDE81040FEF71C
:1024C0003FB8FEF73DB800BF000002408C09002075
:1024D000094B1968C1F3033159B1084810B5846933
:1024E0000A035A600CB1C069A047BDE81040FEF76E
:1024F00027B8FEF725B800BF000002408C09002075
:10250000094B1968C1F3032159B1084810B5046992
:102510000A025A600CB14069A047BDE81040FEF7BE
:102520000FB8FEF70DB800BF000002408C09002074
:10253000094B1968C1F3031159B1084810B58468F3
:102540000A015A600CB1C068A047BDE81040FDF711
:10255000F7BFFDF7F5BF00BF000002408C09002067
:1025600008B5074B196811F00F0105D0054A5960ED
:1025700013680BB150689847BDE80840FDF7E0BF0D
:10258000000002408C090020000000000000000054
:1025900038B5154DEB6A5C6822075C6011D463079F
:1025A0000BD5EA6A2023916983F311880F48090447
:1025B000FEF746FA002383F31188BDE83840FDF7A3
:1025C000BFBF28461A68032122F0020200F8281B28
:1025D00020211A6081F311880021FEF731FA0023CF
:1025E00083F31188DBE700BFC8090020E809002059
:1025F0002DE9F0414B4FD7F8AC52D5F80C802B6841
:10260000DE059CB25ED4202383F3118814F02F0FD3
:1026100008D131E0A0066E681DD42C68A4B214F075
:102620002F0F29D02007F5D014F0080F0CBF002180
:102630008021E20748BF41F02001A30748BF41F0D5
:102640004001660748BF41F480713748FEF7F8F94A
:10265000A0066E68E1D57B697BB3F1B23348FEF723
:102660005FF90028D9DA30488021FEF7E9F92C68B3
:10267000A4B214F02F0FD5D1002383F3118818F0E2
:10268000800F01D022062CD4630612D5202383F3B9
:1026900011887A6CBB6C23489A422FD04FF6BF73D7
:1026A0006FF0400208EA0303EB6000232A6083F323
:1026B0001188BDE8F041FDF743BF1B480421FEF738
:1026C000BFF9CAE7202383F311884FF40071381D46
:1026D000FEF7B6F96FF480732B60002383F3118843
:1026E00091E7202383F311881148FEF749F9002868
:1026F0000CDB6860002383F31188C5E7836B002B34
:10270000CCD004301021FEF79BF9C7E7064808211A
:10271000FEF796F94FF63F7308EA030343F04003D0
:10272000EB60E7E760150020641500206C150020C1
:1027300090150020000000000000000000000000D4
:1027400038B5164DEB6A1C69A20711D1E3060BD50B
:10275000EB6A10211961202383F311881048FEF7DA
:102760006FF9002383F31188BDE83840FDF7E8BE18
:102770005A69202122F010025A6181F31188002148
:1027800005F11000FEF724FC05F118000221FEF708
:1027900057F9002383F31188D8E700BFC809002048
:1027A000E809002000000000000000000000000018
:1027B00038B5164DEB6ADC68A20711D1E3060BD5DC
:1027C000EB6A1021D960202383F311881048FEF7AB
:1027D00037F9002383F31188BDE83840FDF7B0BE18
:1027E0005A69202122F002025A6181F311880021E6
:1027F00005F11000FEF7ECFB05F118000121FEF7D2
:102800001FF9002383F31188D8E700BFC80900200F
:10281000E8090020000000000000000000000000A7
:10282000184B10B5DA6A936813F00104936005D071
:1028300013F00C0F14BF4FF480340124D90506D5D2
:1028400013F4406F14BF44F4003444F00204DA037C
:1028500006D513F4402F14BF44F4802444F004043C
:10286000202383F3118808480021FEF7B1FB21469D
:102870000648FEF7E5F8002383F31188BDE8104011
:10288000FDF75EBEC8090020D0090020E409002041
:102890002DE9F0410D0704462BD5C26A076955683A
:1028A000166829680F2321F00F012960117C856AC1
:1028B000BA688B4000217360A9603AB105230370A8
:1028C00090472378052B04BF022323700022226146
:1028D000202383F31188636933B14FF0FF316261C4
:1028E00018461962FEF704F8002383F31188BDE847
:1028F000F0818A072AD503691A78002A33D1C16A80
:102900005F684E68D1F800E035680F2325F00F05A9
:1029100035600D7C816AAB40CEF804308A60002FB0
:1029200032D0042303708168C268B8472378042B2F
:102930002AD0202383F311886369002BD4D000228E
:10294000626118461A62FDF7D3FFCDE74B0708D541
:1029500003695B682BB1BDE8F041C2688168520829
:102960001847BDE8F0815D68002DFAD0C268012AE1
:102970000FD95B88520803FB02F3816801EB430126
:102980002B46BDE8F0411847022200232270236144
:10299000CFE72B46BDE8F0418168184700000000F2
:1029A0000C30FEF7A5BC00BF0000000000000000D6
:1029B0000C304FF6FF73FEF79BBC00BF0000000019
:1029C0003030FEF725BC00BF000000000000000012
:1029D00030304FF6FF73FEF71BBC00BF0000000055
:1029E0000C30FEF7C5BC00BF000000000000000076
:1029F0000C304FF6FF71FEF7BBBC00BF00000000BB
:102A00003030FEF745BC00BF0000000000000000B1
:102A100030304FF6FF72FEF73BBC00BF00000000F5
:102A200008B50120FEF7E4FC202383F311884FF062
:102A30008043586A002383F3118880B208BD00BF29
:102A400070B5074C002604F1140554F8040B18B1B6
:102A5000FEF7DEF944F8046CAC42F6D170BD00BF5D
:102A600068090020000000000000000000000000D5
:102A70000A4B30B403F114002025002453F8042B32
:102A80003AB185F31188517F41F00401517784F305
:102A900011888342F2D130BC704700BF6809002022
:102AA00010B4202383F311884FF080435C6A002325
:102AB00083F31188521A641AA1B292B2914206D3DA
:102AC000054C0649064A012323700B701060184616
:102AD0005DF8044B704700BFE4080020E5080020C3
:102AE000FC080020000000000000000000000000C2
:102AF000F0B40E4E0E4F35683B4605E013F8014B1F
:102B000011F8012B944207D1AB42F7D30B781BB9D4
:102B100037601846F0BC7047064C0749074A012346
:102B2000237010600B701846F0BC7047E00800205E
:102B3000EC080020E4080020E5080020FC08002044
:102B400059B910B40649074C074A01232370106095
:102B50000B7018465DF8044B704700231846704709
:102B6000E5080020E4080020FC0800200000000028
:102B700010B4202383F31188054B00211A68541CDC
:102B800010701C6081F311885DF8044B704700BF22
:102B9000E00800200000000000000000000000002D
:102BA00070B501780446094D39B1286803689B68FF
:102BB000984714F8011F0029F7D1286804490368D1
:102BC00002221B68BDE87040184700BFE8080020DB
:102BD000A07F0008000000000000000000000000CE
:102BE00038B50178044641B1044D286803689B68F4
:102BF000984714F8011F0029F7D138BDE8080020D4
:102C000010B370B584B06D466C46124AA2FB001337
:102C1000DB0803EB8301A0EB410000F13001C9B2F6
:102C200004F8011B1846002BF0D1AC420AD90A4E19
:102C3000013C01E014F8011D306803689B68984767
:102C4000AC42F7D104B070BD034B30211868036863
:102C50009B681847CDCCCCCCE808002000000000D1
:102C60002DE9F04F9F4C83B020609F48FFF798FFFD
:102C70009E48FFF795FF9E4D9E48FFF791FF2A2142
:102C8000206803689B68984715F8011F0029F7D151
:102C900099489A4DFFF784FF2A21206803689B68B2
:102CA000984715F8011F0029F7D19548954DFFF772
:102CB00077FF2A21206803689B68984715F8011F51
:102CC0000029F7D19048914DFFF76AFF2A2120682B
:102CD00003689B68984715F8011F0029F7D18C48B5
:102CE0008C4DFFF75DFF2A21206803689B68984799
:102CF00015F8011F0029F7D18748884DFFF750FFCD
:102D00002A21206803689B68984715F8011F00294D
:102D1000F7D18348834DFFF743FF2A2120680368DA
:102D20009B68984715F8011F0029F7D17E487F4D11
:102D3000FFF736FF2A21206803689B68984715F83B
:102D4000011F0029F7D17A480091FFF729FF664853
:102D5000FFF726FF774B0099774F1970774BDFF815
:102D600084B10193009B00260133009357F826306D
:102D700007EB8608002B00F08B80714DFFF7E8FA17
:102D80002D21206803689B68984715F8011F0029CA
:102D9000F7D10098FFF734FFDBF800002E2103681D
:102DA00001369B689847674D3046FFF729FF202181
:102DB000206803689B68984715F8011F0029F7D120
:102DC000D8F800301D68297839B1206803689B68FD
:102DD000984715F8011F0029F7D15B48FFF7E0FE7F
:102DE0004FF4C870FEF704FB584AD8F800A000233F
:102DF000136053609360D3601361DFF87C81544D9E
:102E0000DFF85C91DAF8042088F80030C5F800900B
:102E100002B19047DAF80C309847DAF8083003B17D
:102E20009847FFF70DFE98F80030002B4FD0494F20
:102E30002D21206803689B68984717F8011F002917
:102E4000F7D1454B454F1868FFF7DAFE202120687F
:102E500003689B68984717F8011F0029F7D12B6872
:102E60004B4509D93E4F206817F8011B03689B6842
:102E700098472B689F42F6D33A48FFF791FE019B93
:102E80001F6857F8263007EB8608002B7FF475AFD4
:102E9000019B53F8047F0193002F7FF463AFFFF78A
:102EA00057FA314D1048FFF77BFE46212068036832
:102EB0009B68984715F8011F0029F7D11D4B1B7817
:102EC0004BB92A4803B0BDE8F04FFFF769BE284868
:102ED000FFF766FE4AE7274803B0BDE8F04FFFF76B
:102EE0005FBE00BFE8080020BC7D0008B074000889
:102EF000D0730008CC740008F4740008E473000870
:102F0000FC740008F8730008147500080C740008BD
:102F10005C750008207400086475000834740008AB
:102F20007075000848740008887500085C74000813
:102F3000B4750008E4080020A071000810720008B1
:102F40007074000880740008D074000868090020BC
:102F5000E008002084740008FC0800209C7400082D
:102F6000EC080020D4740008A0740008E474000881
:102F7000D8740008EC740008E50800200000000088
:102F80001F4B19461A6842F001021A600B681C4A6E
:102F90009B07FBD511461368002003F0F90313606B
:102FA00050604B68164A13F00C0FFAD111461368A3
:102FB00043F4803313600B68114A9803FBD5114624
:102FC000536843F4E8135360136843F0807313604D
:102FD0000B680B4A9B01FBD5114610B4094B0A4CF8
:102FE000122054601860536843F0020353604B682A
:102FF00003F00C03082BFAD15DF8044B704700BFB7
:10300000001002400020024000641D00000000008B
:1030100070B40B4B0B4A052502F11406002403F192
:103020001C0003F110015E605D629C611A60DA6051
:103030009A60D86118621961596170BC704700BF0D
:10304000AC080020500D002000000000000000002F
:10305000064A074B07490020096049601260526028
:10306000906098601B605B60704700BF00080020A4
:1030700010080020D408002000000000000000001C
:10308000044B054A0021126052601B605B6099602E
:10309000704700BF00080020D40800200000000096
:1030A000044B054A0021126052601B605B6099600E
:1030B000704700BF00080020D40800200000000076
:1030C0002DE9F041202382B083F31188954D012032
:1030D000696AA1F10501B1FA81F14909FFF730FDF3
:1030E000002840F0898080F31188422420464FF662
:1030F000FF7103F06DFDB0FA80F102204909FFF77E
:103100001FFD013470B9462CF0D14FF6FF714120FC
:1031100003F0A6FDB0FA80F103204909FFF710FD86
:1031200000286FD002B0BDE8F08186F3118887F3E4
:103130001188A1692A20B1FA81F14909FFF700FD40
:10314000002840F0998286F31188E168A3682B205B
:10315000C3EB010EDEF1000141EB0E01FFF7F0FCC5
:103160000028DFD187F311882368626804F11C000E
:10317000D11A8910A360E360FDF712FF04F110007B
:103180003146FDF70DFFFDF79BFA86F3118887F3B3
:103190001188616A2C204D1F69426941FFF7D0FCFC
:1031A000002840F0698286F3118887F31188A169AD
:1031B0002D20B1FA81F14909FFF7C2FC002840F047
:1031C0005B8286F3118887F311882168A3682E201B
:1031D000CA1A51425141FFF7B3FC002840F04C821B
:1031E00086F3118887F311882168E3682F20CB1AB2
:1031F00059425941FFF7A4FC002383F3118802B020
:10320000BDE8F0810121582003F0E2FCA0F1FF317C
:10321000B1FA81F104204909FFF792FC0446002825
:1032200080D1202686F31188582003F0F9FC01464E
:1032300084F31188A1F1FF31B1FA81F10520490928
:10324000FFF77EFC00287FF46DAF0121582003F0CA
:1032500007FDA0F1FF31B1FA81F106204909FFF71E
:103260006FFC044600287FF45DAF86F31188582078
:1032700003F01EFD014684F31188A1F1FF31B1FA7C
:1032800081F107204909FFF75BFC804600287FF4A5
:1032900049AF86F31188696A0820B1FA81F14909BA
:1032A000FFF74EFC1F4C074610B188F3118839E731
:1032B00080F3118886F31188A1690920A1F1050E18
:1032C000DEF1000141EB0E01FFF73AFC10B187F38C
:1032D000118827E780F3118886F31188E168A368D5
:1032E0000A20CF1A79427941FFF72AFC00230028EF
:1032F00083D183F31188052405E09DF80400FFF7CE
:1033000037FC013C10D04FF6FF7101A803F0F0FC30
:10331000B0FA80F10B204909FFF712FC0028ECD02D
:1033200000E700BFAC0800200C20D549FFF7E0FB08
:1033300000287FF4F7AE4FF6FF71472003F048FCFA
:10334000B0FA80F10D204909FFF7FAFB00287FF45D
:10335000E9AE4FF6FF7101A803F0CAFCB0FA80F1A4
:103360000E204909FFF7ECFB00287FF4DBAE29684B
:10337000AB680F20CE1A71427141C24EFFF7E0FBDD
:1033800000287FF4CFAE3168F3681020CA1A51428A
:103390005141FFF7D5FB00287FF4C4AE012101A8FD
:1033A00003F0A6FC431C594259411120FFF7C8FB0A
:1033B00000287FF4B7AE202787F3118801A803F017
:1033C000BFFC014684F3118801F10108D8F1000126
:1033D00041EB08011220FFF7B3FB00287FF4A2AEF7
:1033E00087F31188716A1320A1F1050CDCF100014B
:1033F00041EB0C01FFF7A4FB00287FF4FDAE4FF07A
:10340000000888F31188202484F31188A969142006
:10341000B1FA81F14909FFF793FB9A4E074600285C
:103420007FF443AF80F3118884F31188F168B368A7
:103430001520C3EB010EDEF1000141EB0E01FFF799
:103440007FFB00287FF443AF80F3118884F3118859
:10345000412003F0E5FBB0FA80F116204909FFF79F
:103460006FFB00287FF45EAE422003F0D9FBB0FA78
:1034700080F117204909FFF763FB00287FF452AE63
:10348000432003F0CDFBB0FA80F118204909FFF783
:1034900057FB00287FF446AE442003F0C1FBB0FA8E
:1034A00080F119204909FFF74BFB074600287FF4FC
:1034B00039AE452003F0B4FB87F31188B0FA80F1F0
:1034C0001A204909FFF73CFB00287FF42BAEF16876
:1034D000B3681B20CE1A71427141FFF731FB0028FF
:1034E0007FF420AE804626460524202786F31188E7
:1034F00001A803F025FC88F31188B0FA80F11C20A4
:103500004909FFF71DFB00287FF40CAE9DF804006D
:10351000FFF72EFB013CE8D11D205949FFF7E8FADF
:1035200000287FF4FFAD87F31188696A1E204A1FC7
:1035300051425141534EFFF703FB10B184F3118800
:10354000F0E584F3118887F31188B1691F20B1FA7F
:1035500081F14909FFF7F4FA0028EFD184F31188CB
:10356000F168B3683846CB1A59425941FFF7E8FA77
:1035700000287FF4D7AD87F31188452003F098FB2E
:10358000B0FA80F121204909FFF7DAFA00287FF428
:10359000C9AD442003F08CFBB0FA80F12220490928
:1035A000FFF7CEFA00287FF4BDAD432003F080FB87
:1035B000B0FA80F123204909FFF7C2FA00287FF40E
:1035C000B1AD422003F074FBB0FA80F12420490928
:1035D000FFF7B6FA00287FF4A5AD412003F068FBA1
:1035E000002383F31188B0FA80F125204909FFF701
:1035F000A7FA00287FF496ADE968AB682620C3EBF4
:103600000108D8F1000141EB0801FFF799FA002801
:103610007FF488AD044605264FF02008202788F364
:10362000118801A803F08CFB84F31188B0FA80F1B3
:1036300027204909FFF784FA00287FF473AD9DF82D
:103640000400FFF795FA013EE8D128200C49FFF766
:103650004FFA00287FF466AD87F31188696A292044
:10366000A1F1050CDCF1000141EB0C01054CFFF769
:1036700067FA00283FF459AD86F3118852E500BF80
:10368000DC6F0008AC080020000000000000000013
:1036900010B504464121FDF79BF920464221FDF774
:1036A00097F92046BDE810404321FDF791B900BFCE
:1036B00070B51F4B82B09C694FF4A471A2681D4B7A
:1036C000013200941C48FDF773F81C4B202518604C
:1036D000FDF7C6F8066B85F311883146FDF718F83B
:1036E000002484F31188F0B2FFF742FAFDF7B8F82E
:1036F000066B85F311883146FDF70AF884F31188CB
:10370000F0B2FFF735FAFDF7ABF8066B85F31188D9
:103710003146FCF7FDFF84F31188F0B2FFF728FA79
:103720000749012002B0BDE87040FFF7E1B900BFD2
:10373000F813002091360008500D00206809002081
:10374000C07A000800000000000000000000000037
:1037500070B5194B194D9A69194B966882B0721C55
:10376000009328464FF4A471164BFDF721F8164C30
:10377000164B2060B21C009305F5A4704FF4A471A1
:10378000134BFDF715F8134BF21C4FF4A471606056
:10379000009305F52470104BFDF70AF8A06003F0C4
:1037A00097F903F095F9FFF74BF90C49012002B0A6
:1037B000BDE87040FFF79CB9F8130020500D0020C1
:1037C000D46F00080138000868090020D86F00088D
:1037D00091380008D06F0008E1370008C07A00086F
:1037E00038B50546054C2046FDF73AFA2878FFF72C
:1037F000BFF92046BDE83840FDF792B91008002017
:10380000F8B507461C48FDF72BFA1C48FDF728FAC7
:10381000202383F311881A4DAB699E6B3046FDF768
:1038200057F9184AAC6910461346226203E09968BA
:10383000A268914202D31B688342F8D15A680720DC
:103840002360626014605C60FCF7F2FFAB691B6A86
:10385000013302D03046FDF79BF9002383F3118832
:103860003878FFF785F90548FDF75AF9BDE8F840C3
:103870000148FDF755B900BF1008002000080020DE
:10388000F8130020D4080020000000000000000011
:1038900070B506461648FDF7E3F9202383F3118837
:1038A000144B9C69A56B2846FDF712F9124A104685
:1038B0001346226203E09968A268914202D31B6812
:1038C0008342F8D15A6807202360626014605C600C
:1038D000FCF7AEFF2846FDF75BF9002383F3118860
:1038E0003078FFF745F9BDE870400148FDF718B999
:1038F00000080020F8130020D40800200000000079
:1039000030B52C4A2C4B926983B095684FF4A47162
:103910006A1C009329482A4BFCF74AFF294C2A4B82
:103920002060AA1C00934FF4A471254B2748FCF794
:103930003FFF274B6060EA1C00934FF4A471204BBB
:103940002448FCF735FF244BA0602A1D00934FF458
:10395000A4711B4B2148FCF72BFF214BE0606A1D33
:1039600000934FF4A471164B1E48FCF721FF20234F
:10397000206183F311881C4C2368A34218BF6FF0A9
:10398000010509D01A68184654602260FCF7B0FFA0
:1039900023680562A342F5D1FCF792FE002383F36E
:1039A0001188FFF74DF81149012003B0BDE8304000
:1039B000FFF79EB8F8130020E06F0008500D0020BC
:1039C0009138000868090020F8800008980E00204F
:1039D000D86F0008E00F0020D06F000828110020E9
:1039E000D46F000870120020D4080020DC6F00089B
:1039F000F0B52C4B2C4E9B692C4D9F682C4983B005
:103A00007A1C2B46009130464FF4A471FCF7D0FE8F
:103A1000284C29492060BA1C2B46009106F5A47059
:103A20004FF4A471FCF7C4FE24496060FA1C2B46D5
:103A3000009106F524704FF4A471FCF7B9FE2049FB
:103A4000A0603A1D2B46009106F576704FF4A471E4
:103A5000FCF7AEFE1B49E0602B4600917A1D06F58F
:103A6000A4604FF4A471FCF7A3FE2023206183F32C
:103A7000118803F045F803F043F803F041F803F030
:103A80003FF803F03DF8FCF71BFE002383F3118899
:103A9000FEF7D6FF0C49012003B0BDE8F040FFF768
:103AA00027B800BFF8130020500D002091380008FF
:103AB000E06F000868090020F8800008D86F00084F
:103AC000D06F0008D46F0008DC6F00080000000011
:103AD0002DE9F0413B4D2023AA69966883F31188B4
:103AE000394C0021A368002B5ED0002383F311889A
:103AF0000120FFF725F8014608B1BDE8F081202339
:103B000083F31188A368304A002B54D0012100238D
:103B100083F311880220FFF713F807460028ECD141
:103B2000202383F31188DFF8A0804046FCF7D0FF04
:103B300087F3118821680320091BB1FA81F1490933
:103B4000FEF7FEFF0028D8D1D8F808100420B1FAFB
:103B500081F14909FEF7F4FF0028CED1AB690520B9
:103B60009968711AB1FA81F14909FEF7E9FF002855
:103B7000C3D14046FDF774F8FCF77AFFD8F800107F
:103B80000620C8EB0101B1FA81F14909FEF7D8FF1F
:103B90000028B2D1D8F808100720B1FA81F1BDE8A9
:103BA000F0414909FEF7CCBFAB6901219A6BA360D4
:103BB000E2609C6399E7AB69986B9360D0609A630D
:103BC000A5E700BFF8130020000800200000000057
:103BD000024B00221B605B609A607047280900203E
:103BE000024B01221B605B609A6070475C090020F9
:103BF000704700BF0000000000000000000000004F
:103C0000024B00221B605B609A6070475C090020D9
:103C1000202383F3118862B672B683F3118862B6EB
:103C2000002383F3118862B6704700BF00000000D4
:103C300010B52F482F4CFEF7D3FF4FF4A870FEF7B6
:103C4000DFFF2046FEF7ACFF2B48FEF7C9FF4420FC
:103C5000FEF7D6FF2046FEF7A3FF2848FEF7C0FF79
:103C60001420FEF7CDFF2046FEF79AFF2448FEF70A
:103C7000B7FF0C20FEF7C4FF2046FEF791FF214856
:103C8000FEF7AEFF0420FEF7BBFF2046FEF788FFDD
:103C90001D48FEF7A5FF1420FEF7B2FF2046FEF7F1
:103CA0007FFF1A48FEF79CFF1020FEF7A9FF204671
:103CB000FEF776FF1648FEF793FF0820FEF7A0FFF9
:103CC0002046FEF76DFF1348FEF78AFF2420FEF71B
:103CD00097FF2046FEF764FF0F48FEF781FF28207C
:103CE000FEF78EFF2046BDE81040FEF759BF00BF2B
:103CF000F07A0008007B0008087B0008187B0008A9
:103D0000287B0008387B0008487B0008587B0008A7
:103D1000687B0008787B0008887B000800000000B2
:103D200038B5FEF77DFE03F063F8144D0024144807
:103D3000FCF796FF1248FCF7F3FE1148FCF790FFE2
:103D40000F48FCF7EDFE0E48FCF78AFF0C48FCF725
:103D5000E7FE0B48FCF784FF0948FCF7E1FE2B78EF
:103D60000134002BE3D00748FEF73AFFA000FEF72E
:103D700047FFBDE838400448FEF712BF4815002051
:103D800028090020987B0008A87B0008000000009C
:103D900038B5FEF745FE03F02BF8144D0024144807
:103DA000FCF77EFD1248FCF7E3FC1148FCF778FDB8
:103DB0000F48FCF7DDFC0E48FCF772FD0C48FCF7E1
:103DC000D7FC0B48FCF76CFD0948FCF7D1FC2B78BD
:103DD0000134002BE3D00748FEF702FFA000FEF7F6
:103DE0000FFFBDE838400448FEF7DABE4815002052
:103DF0005C090020987B0008B87B000800000000E8
:103E000010B5064CA3695B7F5A0706D40448FCF73B
:103E100047FDA3695B7F5B07F8D510BDF813002051
:103E20005C0900200000000000000000000000000D
:103E300038B5FEF7F5FD02F0DBFF154D0024202319
:103E400083F3118813480121134A0023FDF740F939
:103E500042F21071104A00231048FDF739F90D485D
:103E6000FDF7F6F80D48FDF7F3F8002383F311880A
:103E70002B780134002BE2D00948FEF7B1FE600038
:103E8000FEF7BEFEBDE838400648FEF789BE00BF1B
:103E90004815002014090020F13B0008000900200B
:103EA000987B0008C87B00080000000000000000AC
:103EB000F8B52649264B002201F110001B605B601B
:103EC00014461861D960996159619A60DA611A6281
:103ED0001746FEF7A5FD02F08BFF1E4E202585F349
:103EE000118800211A48FCF71BFD01211848FCF736
:103EF00017FD02211648FCF713FD03211448FCF7B7
:103F00000FFD87F311884FF6FF711148FDF730FA66
:103F10004FF6FF710E48FDF72BFA4FF6FF710C4874
:103F2000FDF726FA0A484FF6FF71FDF721FA3378BC
:103F30000134002BD3D00848FEF752FEA000FEF754
:103F40005FFEBDE8F8400548FEF72ABE7C09002068
:103F50003809002048150020987B0008D47B000811
:103F60002DE9F041DFF8D08084B004AC002344F8A0
:103F7000043DFEF755FDD8F818302A4F2A4E9A68AE
:103F800038463346013A00944FF4A471FCF710FC14
:103F9000D8F81830254D9A684FF4A471286033463C
:103FA000013A009407F5A470FCF702FCD8F8183029
:103FB00068609A6807F524703346013A00944FF41C
:103FC000A471FCF7F5FBD8F81830A8609A6807F5DB
:103FD00076703346013A00944FF4A471FCF7E8FB85
:103FE000D8F818304FF4A4719A68E860013A334663
:103FF00007F5A4600094FCF7DBFB28614FF4FA603E
:10400000FDF7F6F9FEF734FDFEF71AFD0848FEF756
:10401000E7FD0398FEF7F4FD0648FEF7C1FD04B086
:10402000BDE8F081500D0020B14000086809002073
:10403000987B0008E07B0008F813002000000000D7
:10404000F0B5124B83B09B6900249D682746104E43
:104050000135FEF7E5FC02F0CBFE0E4B00970E4853
:104060004FF4A4712A46FCF7A3FB33780134002BEC
:10407000F3D00A48FEF7B4FD2046FEF7C1FD08481C
:1040800003B0BDE8F040FEF78BBD00BFF813002081
:1040900048150020214A0008500D0020987B000898
:1040A000EC7B0008000000000000000000000000A1
:1040B00038B50446084DFCF7CBFAFCF7C9FAFCF713
:1040C000C7FAFCF7C5FA2368AA6904332360537F53
:1040D0005B07F0D538BD00BFF813002000000000DA
:1040E0002DE9F0433A4E83B0B36900249A684FF447
:1040F000A4710532374B38480094FCF759FBB3697B
:10410000364D9A684FF4A47128600432314B009404
:104110003348FCF74DFBB36968609A684FF4A471AB
:1041200003322C4B2F480094FCF742FBB369A86084
:104130009A684FF4A4710232264B2B480094FCF786
:1041400037FBB369E8609A684FF4A4710132214BE0
:1041500026480094FCF72CFBA1462861FEF760FC82
:1041600002F046FEDFF898802027202687F311888A
:104170001F480021FCF714FF0025FCF7A1FA89F382
:10418000118898F800300134002BEED0FEF770FC57
:1041900086F3118816482946FCF702FFFCF790FACF
:1041A00085F31188FEF74CFC1248FEF719FD2046F6
:1041B000FEF726FD1048FEF713FD04EB4400400017
:1041C000FEF71EFD0D4803B0BDE8F043FEF7E8BC66
:1041D000F8130020013E0008500D0020680900205F
:1041E000980E0020E00F00202811002070120020FF
:1041F0005C090020987B0008F87B0008E07B000841
:104200004815002000000000000000000000000031
:10421000F0B5134B83B09B6900249D682746114E6F
:10422000013DFEF7FDFB02F0E3FD0F4B4FF4A471DF
:104230002A4600970D48FCF7BBFAFCF7E9FD3378F6
:104240000134002BF1D00A48FEF7CAFC2046FEF7E5
:10425000D7FC084803B0BDE8F040FEF7A1BC00BFA2
:10426000F813002048150020214A0008500D0020B6
:10427000987B0008EC7B00080000000000000000B4
:104280002DE9F047254B82B09B6900259A684FF4D1
:10429000A4710132224B23480095FCF789FA224B86
:1042A00004461860AA46FEF7BBFB02F0A1FDDFF84A
:1042B00084904FF02008202788F3118800212046A1
:1042C000FCF726FA20460021FCF722FA20460021BE
:1042D000FCF71EFA20460021FCF71AFA00268AF3A2
:1042E000118899F800300435002BE4D087F3118849
:1042F0004FF0FF312046FCF70BFA86F31188FEF7EA
:104300009FFB0A48FEF76CFC6800FEF779FC084842
:1043100002B0BDE8F047FEF743BC00BFF813002031
:1043200041430008500D002068090020987B0008D8
:10433000E07B00084815002000000000000000009D
:10434000074A10B52023946983F311880320FCF7F2
:104350006FFA236A002BF9D0002383F3118810BD74
:10436000F813002000000000000000000000000022
:1043700070B520260025FCF773FA046B86F31188CC
:104380002146FCF7C5F985F31188002CF3D170BDE7
:1043900070B50546FEF744FB02F02AFD074E0024E7
:1043A00028460121FCF714FB33780134002BF7D0A9
:1043B00028460021FCF70CFB204670BD4815002064
:1043C0002DE9F0412C4F2D4EBB6982B09A68002533
:1043D0003046013200954FF4A471294BFCF7E8F9FF
:1043E000BB69284C9A68DFF8AC8020604346023AEB
:1043F000009506F5A4704FF4A471FCF7D9F9BB69D8
:1044000060609A6806F524704346033A00954FF4BD
:10441000A471FCF7CDF9BB69A0609A6806F57670C7
:104420004346043A00954FF4A471FCF7C1F9BB6907
:104430004FF4A4719A68E060053A434606F5A4601B
:104440000095FCF7B5F920612068FFF7A1FF04464D
:10445000FEF7F6FA0C48FEF7C3FB2046FEF7D0FB4A
:104460000A48FEF7BDFB6000FEF7CAFB084802B031
:10447000BDE8F041FEF794BBF8130020500D00207A
:104480007143000868090020987B00080C7C000834
:10449000E07B0008214A0008000000000000000046
:1044A00010B5134A82B09269002392684FF4A47148
:1044B000013200930F48104BFCF77AF90F4B18604C
:1044C000FFF766FF0446FEF7BBFA0D48FEF788FBD0
:1044D0002046FEF795FB0B48FEF782FB6000FEF7D7
:1044E0008FFB094802B0BDE81040FEF759BB00BF82
:1044F000F8130020500D00207143000868090020C7
:10450000987B00080C7C0008E07B0008000000009D
:1045100010B5134A82B09269002392684FF4A471D7
:10452000013A00930F48104BFCF742F90F4B18600B
:10453000FFF72EFF0446FEF783FA0D48FEF750FB07
:104540002046FEF75DFB0B48FEF74AFB6000FEF7D6
:1045500057FB094802B0BDE81040FEF721BB00BF81
:10456000F8130020500D0020714300086809002056
:10457000987B00080C7C0008E07B0008000000002D
:1045800038B5202484F311880120FCF761FF002353
:1045900083F3118880F00101C9B20120FEF7D0FA3F
:1045A000054600B138BD84F311880220FCF750FFA6
:1045B00085F3118880F00101C9B20220FEF7C0FA2C
:1045C00005460028EED184F311880420FCF740FF53
:1045D00085F3118880F00101C9B20320FEF7B0FA1B
:1045E00005460028DED184F311880820FCF730FF4F
:1045F00085F31188BDE8384080F00101C9B204207C
:10460000FEF79EBA0000000000000000000000005D
:1046100010B586B0EFF311831BB9FCF709FFFCF767
:10462000F7FE202383F31188EFF311831BB9FCF706
:10463000FFFEFCF7EDFE002383F31188EFF31183F7
:1046400013B9202383F31188EFF3118313B92023C7
:1046500083F31188002383F31188202282F31188C9
:10466000EFF311820AB183F31188EFF3118313B1D1
:10467000002383F3118800230493202383F31188FC
:10468000049B01AC13B12046FCF7E2FC204601215B
:104690000B4A0023FCF71CFD002484F311880A2038
:1046A000FCF7A6FE202383F31188049984F3118874
:1046B000B1FA81F101204909FEF742FA06B010BDB6
:1046C000D1460008000000000000000000000000CB
:1046D00008B5202383F31188002282F3118883F325
:1046E0001188EFF311831BB9FCF7A2FEFCF790FED3
:1046F000002383F3118808BD0000000000000000C3
:104700000EB42DE9F04F86B00FAA52F8049B8246F2
:10471000CB46154602920DF10D0303AA9B1A019395
:104720004FF000089BF800100BF1010379B1252927
:1047300013D09B46DAF800205046926890479BF8C9
:10474000001008F101080BF101030029EFD14046E8
:1047500006B0BDE8F04F03B070479BF8012000267B
:104760002D2A03BF9BF802200BF102034FF0010931
:104770004FF00009302A03BF5A7801333027202731
:10478000591C06E02B7804359BF8002003EB40060B
:104790000131A2F13003DBB2092B8B4606EB860018
:1047A000F2D92A2AEED02E2A4FF0000143D002F08F
:1047B000DF034C2B4ED0A2F14400342800F2F680E7
:1047C000DFE810F0EA00F400F400F400F400EA007E
:1047D000F400F400F400F400F400E800F400F40045
:1047E000F400F400F400DD00F400F400F100F40043
:1047F000F400F400F400F400F400F400F400F40019
:10480000F400A100EA00F400F400F400F400EA006F
:10481000F400F400F400F400F400E800F400F40004
:10482000F4007100F400DD00F400F400F1002B78D6
:10483000043503EB40011BF8012B01EB8100A2F1D1
:104840003003DBB2092BF4D92A2AF0D002F0DF03BF
:104850004C2BB0D19BF80030002B00F0A780A3F1C7
:1048600044020BF1010B342A00F29F80DFE802F0D2
:10487000949D9D9D9D949D9D9D9D9D929D9D9D9D85
:104880009D879D9D9B9D9D9D9D9D9D9D9D9D9D4BC2
:10489000949D9D9D9D949D9D9D9D9D929D9D9D1BE7
:1048A0009D879D9D9B002C68594B0435002C08BFAB
:1048B0001C462378002900F09380002B00F095809F
:1048C0000139204601E0013903D410F8013F002BE3
:1048D000F9D1001B361A431E202726EAE676B9F1E5
:1048E000000F1FD0002B009334DA002E3FF41AAFD4
:1048F0003446DAF8003050469B6839469847013C08
:10490000F7D1B0440EE7019A2B6810468DF80C30B1
:104910000435531E202703AC361A26EAE676B9F191
:10492000000FDFD10093C6F10009B9F1000F44D0A8
:1049300021782D2946D04E46DAF8003050469B6843
:10494000394698470136F7D1009BC9EB0808002B80
:10495000FFF6E8AEDDF80090DAF8003009F1FF3933
:104960009B68504614F8011B9847B9F1FF3FF3D1FB
:10497000009B08F10108002BA8BF9844B5E70A2264
:10498000296803A8043502F053FA03ABC01A431E8A
:1049900003ACC1E70822F3E72968043500292EDBC0
:1049A00003A80A22EFE71022EAE71A46019B03ACAC
:1049B00018468DF80C20013BAEE7009B4E46002BBD
:1049C000C8DAAFE6302FB6D1DAF8003050469B682F
:1049D0009847009B0134013B08F101080093AAE7C6
:1049E00047F6FE71002B7FF46CAF26EAE676B9F14C
:1049F000000F0BD14FF0FF330093202793E72D23B7
:104A000049428DF80C300DF10D00CAE720276CE704
:104A1000187C0008000000000000000000000000FA
:104A2000FCF70EBB000000000000000000000000CA
:104A3000002903DD0849094AFFF762BE202383F3FA
:104A400011884FF080435A6A002383F31188044988
:104A500092B2FFF755BE00BF607C00086C7C000876
:104A6000747C00080000000000000000000000004E
:104A7000002903DD19491A4AFFF742BE10B5044662
:104A800082B01849184AFFF73BFE20461749184ADA
:104A9000FFF736FE20461749174AFFF731FE20463A
:104AA0001649174AFFF72CFE20461649164AFFF70B
:104AB00027FE20461549164AFFF722FE20461549D3
:104AC000154AFFF71DFE154B204600931449154A61
:104AD000154BFFF715FE02B010BD00BF607C00084B
:104AE0007C7C0008847C0008F4740008987C000832
:104AF00014750008AC7C00085C750008C07C0008D8
:104B000064750008D47C000870750008E87C000813
:104B100088750008FC7C0008B4750008387D000822
:104B2000107D0008287D0008347D0008000000008A
:104B30002DE9F047794B04689B69794A98B0D0F821
:104B40000480784920469A61FFF7DAFD08AE0DF13E
:104B50005F0720467449FFF7D3FD3546236820469A
:104B60005B680DF107010122984770B39DF80710AB
:104B7000042926D0082911D07F290FD00D2935D03E
:104B80001F29EBD9BD42E9D2236820469B6898478C
:104B90009DF80730013505F8013CDFE7B542DDD06F
:104BA000236820469B689847236820469B682021FD
:104BB0009847236820469B689DF80710013D984759
:104BC000CCE720465949FFF79BFD20465849FFF79F
:104BD00097FD202383F3118800215648FBF730FF0F
:104BE0000020FCF70DFA18B0BDE8F08752492046C6
:104BF000FFF786FD002302A92B7030461D4602F008
:104C00003FF902A9824600200DF10C0902F038F9A3
:104C100050B1042D1DD049F8040B02A90020013524
:104C200002F02EF90028F4D118AB03EB850343F80A
:104C3000540CBAF1000F8CD050464049FBF710FBE2
:104C400070B9002DC5D020463D493C4AFFF758FDBC
:104C50007FE720463B49FFF753FD0023079378E7A2
:104C600050463949FBF7FCFA30B92046C5B1344902
:104C7000354AFFF745FD6CE7344B1868994618B97B
:104C800031E059F8080F70B35146FBF7E9FA0028F4
:104C9000F7D1D9F80430294603AA2046984758E7A7
:104CA0002B49FFF72DFD294B1A681D463AB12046C6
:104CB0002849FFF725FD55F8082F002AF7D1B8F14C
:104CC000000F0BD0D8F8002042B1454620462149BC
:104CD000FFF716FD55F8082F002AF7D12046164990
:104CE000FFF70EFD35E7B8F1000F0DD0D8F8000042
:104CF00050B1C14602E059F8080F28B15146FBF700
:104D0000AFFA0028F7D1C4E7524620461249FFF710
:104D1000F7FC20461149FFF7F3FC1AE7F8130020CF
:104D2000447D00084C7D0008647D00086C7D00080F
:104D3000C07D0008180A0020A07F0008887D0008B8
:104D4000607C0008707D0008907D0008200800202D
:104D5000987D0008B07D0008B47D0008B87D00088B
:104D60002DE98048DFF83CE300210A460D467446F1
:104D7000B74B4FF0FF301E6918611961DE68D860CB
:104D8000D960D869B34E40F08050D861D869DFF857
:104D9000189340F00060D86133688DB043F480739D
:104DA0003360AD4B1960616800230D6049F83250E3
:104DB0000132072A04F11404F5D1A84A42F28A5CB0
:104DC0009246A7484FF0FF37A14947608C69DFF84A
:104DD000DCB2A0F57840A34E44F07D048C61A24D76
:104DE000C760A24CC0F804B0DFF8C4824FF0884B13
:104DF000C0F800B0F76000F580504FF0883777605A
:104E0000C6F80080EB606B602B60E360636023603A
:104E1000C360436003608869954F012607F1180459
:104E200040F4007009253E707B60BB60FB603B6115
:104E30007B613B62C7F82CE08861C7F830C0BC6179
:104E4000FC61BA62536096609560DAF80820834B83
:104E50001607FAD4194605229A608D687F4B15F023
:104E60000405FAD1DFF8E8819D60D8F81830814E4A
:104E700023F40073C8F81830D8F81C107E4B0122B8
:104E800041F000713270C8F81C10D3F8001206F11E
:104E90000800090C090441F460611143C3F80012D1
:104EA000C3F84052C3F84452C3F80452C3F8145232
:104EB000C3F80C22C3F81C22D3F80012029221F08E
:104EC0000101C3F80012D8F81C1006F1200C21F0E3
:104ED0000071C8F81C1006F1240E06F1100106F14D
:104EE000180B06F11C0A06F12804C6F818B0C6F81B
:104EF0001CA0C6F820C0C6F824E0B462B060F06020
:104F000031617161F362756048F69F4B01F038FFC3
:104F10004FF6FF7C4FF6FF00D8F81C30DFF894E125
:104F200043F00103C8F81C30DEF80440029A5349EC
:104F3000DFF884A144F40064CEF804404FF08043CD
:104F40004FF0800E4FF08054C3F828B0C3F82CC047
:104F50009D615D63DD605D605A611A6005928AF84B
:104F60001CE3CAF88041CAF800408D60CC68444B0D
:104F700020400343434CCB60E368434843F08073D5
:104F8000E3600368414C43F00103A4F824C064606B
:104F9000A56024616461DFF824B103603C4A1023FA
:104FA000CB774FF0200C04F11C0381F822C006A837
:104FB000CDF810C04FF0FF312460E3612362CBF8DD
:104FC000AC2200230022CDE90A230691E58425675F
:104FD00007950895099501F0EBFC06A8FBF710FB77
:104FE0002C482D4920F0070208982C4B2067606957
:104FF000029220644020059A6063A06621F00701B8
:10500000606903F1100E039104F12C01C3F810E064
:10501000C3F814E09D6184F849506566256684F8FC
:105020004A206564E46301611D489D60DD6018608D
:1050300004F15403DFF888E06365A365029B6161B6
:10504000A16104F150012165CEF800303AE000BFC3
:105050000010024000700040E80C002000240140D5
:1050600000000240000C014000100140001401400B
:10507000C0130020C80900200064004000ED00E0DB
:105080000003FA05F0ED00E0001000E0F813002046
:10509000003801408718002000500020F809002047
:1050A00041040008F07D00088C090020B444898880
:1050B00044383333002004E000E100E060150020B4
:1050C000B81300209749039B84F848200B6085F3B0
:1050D000118862B69449A36904F178009961D821D6
:1050E0000095924BFBF764FB914B836101F048FE06
:1050F000904BDDF810C0CBF8AC328CF311889BF8E4
:105100000830012B00F000818B498C4A0868DBF8DD
:10511000AC32B2FBF0F29A608A88C888098942F4FE
:10512000045240F0400042F02C0241F0010180B2F4
:1051300092B289B20025186159610220DA601D60BF
:105140001A685B688BF8080085F311887C4B7D4CEE
:10515000C82025601B60FCF74BF9202383F31188DE
:105160003A787D60012A784D78D04FF0020887F8B0
:105170000080002383F31188744D00934FF4327143
:105180004022734B7348FBF713FB202780224023F8
:105190006F61C8206A616B61FCF72AF92F6187F3A0
:1051A00011886D4BB0224FF400154FF480016B480D
:1051B0004FF4002E4FF4801786F8008083F81323F5
:1051C000C3F880E1C3F800E083F81423C3F88071CA
:1051D0001F6083F81523C3F880511D6083F81623E0
:1051E000C3F880111960C169F26A5D4B41F000712A
:1051F0000125C161736015605168C80709D4012198
:105200000820FBF7A5FFF26A564B5168C907F6D58F
:105210005B685548032193E8A0000023D76115601F
:105220005061317083F31188504F1E46454D03E0A5
:105230004FF4C870FCF7DCF8206830B1037F0F2B07
:10524000F6D1FBF78DFD2E60F2E7009740F6C8011E
:105250004022474BFBF744FE2860E9E7EB6A4549EB
:10526000587C096882400A424CD1DFF810E109EB12
:10527000C00255604D0649F830E004D13748426914
:1052800042F0010242615A68D3F800C015680F204D
:1052900025F00F05156093F810E09D6800FA0EF0F8
:1052A00029424FF0000ECCF80400C2F800E017D1FC
:1052B000987C01254209920000F1604E02F16042A3
:1052C00000F01F0002F5614205FA00F00EF5614E94
:1052D0004FF0600C8EF800C3C2F8800110605A686D
:1052E000587C012383401943224B1960224B1B48F1
:1052F00093608369BA6A002143F40073836151604B
:10530000916032E75A68F1E7D8F81830C02243F4C8
:105310008043C8F818308AF82523CAF884C1CAF82F
:1053200004C0F1E6BC130020307C0008F104000842
:10533000CC7D0008003801403808002000512502CB
:10534000180A0020C4090020C0130020000C0140EE
:1053500001670008200A002000E100E00010024080
:10536000207C0008C80900205B870100507C0008F1
:10537000314B0008E80C00204C2401409128000823
:10538000704700BF000000000000000000000000A7
:1053900030B4084A084B0948151D042400211D613A
:1053A0009C601B605B60DA609A615A61D861196227
:1053B00030BC7047500D0020500800208153000879
:1053C000084A094B094810B40021141D1C611B60D8
:1053D0005B60DA609A615A61D861996019625DF820
:1053E000044B7047500D00207408002081530008C2
:1053F000094910B400224FF4CC64084B81E8140032
:1054000003F11000DA609960186158611A609A61BE
:105410005DF8044B704700BF500D0020F00C0020D9
:10542000034B00224FF4A47159601A609A607047D0
:1054300070180020000000000000000000000000C4
:10544000094910B400224FF4CC64084B81E81400E1
:1054500003F11000DA609960186158611A609A616E
:105460005DF8044B704700BF500D0020F00C002089
:10547000024800214FF4C872FBF70ABF5008002011
:105480000078FDF775BB00BF0000000000000000C1
:105490002DE9F043202383B083F31188864B5969AB
:1054A0009A6991425DD000210120FDF749FBB8BB0C
:1054B00080F311884124804D2146013428464FF65F
:1054C000FF72E4B2FBF7E4FE452CF4D1202686F30C
:1054D0001188A9680220B1FA81F14909FDF730FB72
:1054E0000746E8B980F31188814604244FF020086C
:1054F00086F31188704D2846FBF742FA89F311882C
:10550000C0B2FDF735FB013CF0D188F311886A6920
:10551000AB699A422AD039460320FDF711FB28B126
:10552000002383F3118803B0BDE8F08380F3118872
:1055300004206249FDF7DCFA04460028F3D1202656
:1055400086F311885C4D2846FBF71AFA033014BF26
:10555000002101210520FDF7F3FA60B184F31188E1
:10556000E1E79968003118BF01219DE7AF68003776
:1055700018BF0127CFE780F311885149034608225D
:105580002846FBF745FEA0F10401B1FA81F106209F
:105590004909FDF7D5FA04460028C4D186F31188DD
:1055A000A9680720B1FA81F14909FDF7C9FA074650
:1055B0000028D3D180F31188424B4FF4A4719B692A
:1055C00041489A68414B01320097FBF7F1F8404B94
:1055D000186086F31188E9682B69AA685B1A991A22
:1055E000A1F10401B1FA81F108204909FDF7A8FAF7
:1055F000044610B187F3118895E780F31188FDF711
:105600001FFA86F31188EA682B6928469B1A6FF007
:105610000101AA616A61AB60FBF7DAFC84F31188CF
:1056200086F311882B69EA68A9689B1A591AB1FA9E
:1056300081F109204909FDF783FA034600288DD13D
:1056400080F311881E4902222846FBF7E1FD02384B
:10565000414241410A20FDF773FA034600287FF4D6
:1056600062AF174902222846FBF7D2FD821E514243
:1056700051410B20FDF764FA00287FF454AF86F304
:105680001188A9680C20B1FA81F14909FDF758FA8F
:1056900000287FF445AF002181F311880A220648D3
:1056A000FBF7F6FD431C594259410D2003B0BDE8FC
:1056B000F043FDF745BA00BF50080020B07E000857
:1056C000980E0020F8130020500D0020715400089F
:1056D0006809002000000000000000000000000039
:1056E00002484FF4C871FBF743BE00BF74080020A6
:1056F000F0B5202483B084F31188904B0120996881
:10570000B1FA81F14909FDF71BFA0646E8B980F3C1
:10571000118884F311884124884D2146013428469C
:10572000E4B2FBF7FDF8452CF6D1002383F3118892
:10573000202383F31188AA696B699A4238D03146D5
:105740000220FDF7FDF9044620B1002383F3118800
:1057500003B0F0BD80F31188202383F311887748CC
:105760002146FBF7DDF8043014BF0021012103209E
:10577000FDF7E6F9C0B980F3118804246F4D4FF6A8
:10578000FF712846FBF7F4FDC0B2FDF7F1F9013CCB
:10579000F4D1202686F31188A9680420B1FA81F19A
:1057A0004909FDF7CDF940B184F3118803B0F0BD8C
:1057B000AE68003618BF0126C1E784F311880520C2
:1057C0005F49FDF795F90028C2D186F3118841247D
:1057D0005A4D214601342846E4B2FBF7A1F8452C86
:1057E000F6D1002383F31188564908222846FBF797
:1057F0007FFDA0F10401B1FA81F106204909FDF70E
:105800009FF904460028A3D1202686F31188A968B1
:105810000720B1FA81F14909FDF792F90028C3D1B7
:1058200080F3118886F311884124444D21460134C8
:105830002846E4B2FBF774F8452CF6D1002383F335
:105840001188404928460222FBF752FDA0F10201CF
:10585000B1FA81F108204909FDF772F900287FF4B7
:1058600077AF0346374902222846FBF741FDA0F1F6
:105870000201B1FA81F109204909FDF761F90646F3
:1058800000287FF465AF202787F31188A9680A20D4
:10589000B1FA81F14909FDF753F9044610B186F3D5
:1058A000118855E780F3118887F31188214628462F
:1058B000FBF736F8EB6828466FF00101AC60AB618E
:1058C0006B61FBF785FB84F3118887F31188A96866
:1058D0000B20B1FA81F14909FDF732F9064600289B
:1058E0007FF462AF80F31188174B4FF4A4719B696A
:1058F00016489A68164B01320096FAF759FF154B75
:10590000186087F31188A9680C20B1FA81F1490960
:10591000FDF716F90028C2D180F31188FDF790F841
:1059200028460A21FBF724FD431C594259410D200A
:1059300003B0BDE8F040FDF703B900BF74080020D4
:10594000B07E0008980E0020F8130020500D0020B3
:10595000E156000868090020000000000000000077
:1059600038B50546202383F311880A4B00241B69B0
:105970009A7F01329A7784F311881846AB4208BFA8
:1059800044F00104FBF72CFA03460028F5D1204629
:1059900038BD00BFF8130020000000000000000028
:1059A00010B54A4A4A4B926982B092684FF4A4718A
:1059B00000934848013A484BFBF792FA817F04462E
:1059C0000120091AB1FA81F14909FDF7B9F808B1C6
:1059D00002B010BD202383F31188A37F0133A37786
:1059E00080F31188A17F0220091AB1FA81F14909D7
:1059F000FDF7A6F80028EBD12046FBF7B1F9A17F0F
:105A00000320A1F10101B1FA81F14909FDF798F8EC
:105A10000028DDD12046FFF7A3FF01460420FDF753
:105A20008FF80028D4D12046FFF79AFF01460520C1
:105A3000FDF786F80028CBD12046FBF791F9A17F2E
:105A40000620B1FA81F14909FDF77AF80028BFD1A3
:105A5000217F0720B1FA81F14909FDF771F800288B
:105A6000B6D12046FFF77CFF01460820FDF768F815
:105A70000028ADD12046FFF773FF01460920FDF74E
:105A80005FF80028A4D16420FBF7B2FC217F0A2034
:105A9000A1F10F0359425941FDF752F8002897D15F
:105AA0002046FFF75DFF01460B20FDF749F800286F
:105AB0008ED12046FFF754FF80F00101C9B20C20BF
:105AC00002B0BDE81040FDF73BB800BFF81300205E
:105AD000D46F0008F00C0020815400080000000082
